:020000041008E2
:4000000000780408EB0208100D0000005103081051030810510308105103081000000000000000000000000000000000512708104D0308100000000081270810E52708109E
:400040004D0308104D0308104D0308104D0308104D0308104D0308104D0308104D0308104D0308104D0308104D0308104D0308104D0308104D0308104D0308104D03081000
:400080004D0308104D0308104D0308104D0308104D0308104D0308104D0308104D0308104D0308104D0308104D0308104D0308104D0308104D0308104D0308104D030810C0
:4000C0004D0308104D0308104D0308104D0308104D0308104D0308104D0308104D0308104D0308104D0308104D0308104D0308104D0308104D0308104D0308104D03081080
:400100004D0308104D0308104D0308104D0308104D0308104D0308104D0308104D0308104D0308104D0308104D0308104D0308104D0308104D0308104D0308104D0308103F
:400140004D0308104D0308104D0308104D0308104D0308104D0308104D0308104D0308104D0308104D0308104D0308104D0308104D0308104D0308104D0308104D030810FF
:400180004D0308104D0308104D0308104D0308104D0308104D0308104D0308104D0308104D0308104D0308104D0308104D0308104D0308104D0308104D0308104D030810BF
:4001C0004D0308104D0308104D0308104D0308104D0308104D0308104D0308104D0308104D0308104D0308104D0308104D0308104D0308104D0308104D0308104D0308107F
:400200004D0308104D0308104D0308104D0308104D0308104D0308104D0308104D0308104D0308104D0308104D0308104D0308104D0308104D0308104D0308104D0308103E
:400240004D0308104D0308104D0308104D0308104D0308104D0308104D0308104D0308104D0308104D0308104D0308104D0308104D0308104D0308104D0308104D030810FE
:400280004D0308104D0308104D03081010B5054C237833B9044B13B10448AFF300800123237010BD5449020800000000C03B0810084B10B51BB108490848AFF300800848B3
:4002C000036803B910BD074B002BFBD0BDE81040184700BF0000000058490208C03B081024430208000000007047FFF7FDFF72B6104C114DAC4209DA21686268A368043B87
:40030000A2BFC858D050FAE70C34F3E70B490C4A00209142BCBF41F8040BFAE709480A490860BFF34F8F00F07DFA00F057FA00F0B1F8FEE7C43B0810DC3B08105449020831
:400340005C4D02080040020808ED00E0FEE7FEE700B504207146084202D0EFF3098001E0EFF30880043000F0CDFEFEE70C4B0122C3F83021D3F830310A4BB3F90030002B9D
:4003800009DB5A0903F01F03012101FA03F36032054941F822300122044B1A70704700BF000038400035081000E100E07049020810B5084B5C6A34F0070304D040F2E23183
:4003C000054800F08FFE034B9C619B690022034B5A7010BD00022640683408107049020810B50E4C0E4A0021204601F0A1FE0123A360A3610B4C0C49204600F02DFEB4F96B
:400400000030002B08DB590903F01F03012202FA03F3064A42F8213010BD00BF00003840E03A0810003508106D03081000E100E008B5042902D0082907D008E00822054B25
:400440009A600122044B5A6001E0FFF7C9FF002008BD00BF000332400000384010B502F0D9FA094C0949204600F0F6FDB4F90030002B08DB590903F01F03012202FA03F335
:40048000034A42F8213010BD10350810B103081000E100E02DE9F0412DED028B88B00024069407945A4B009301278DF804700323029306AB03930494059462B6FFF790FF05
:4004C000FFF7CCFF684600F07FFE02F075FA02F0BFFA02F0DFFA4F48036843F0004303604FF400634C4A1278022101F0DFFF39464A4801F041F902F0CFF9494802F04EFBF4
:4005000025462646474B1B78002B69D0DFF80C810021404601F08AF902460021404601F0DBF908EE100A132D02DC17E0013300E00023012BFADD012000F0C8FD3A4D6FF00D
:400540000401284601F02CFA012000F0BFFD4FF0FF31284601F024FA002500E00135F8EEC87A9FED327AF4EEC77AF1EE10FA03DD17B10136002707E09FED2D7AF4EEC77A4E
:40058000F1EE10FA00D501274BF67E339C4216DD244B5E6001221A7266B91A46DB680133D360244A126893420BD100241D4BDC60264608E000241B4BDC60264603E001348E
:4005C00001E000263446174A0023137013690133136145F6C052934202D10022114B1A61104B5B7813B1002000F0F0FE0D4B1B7A002B87D00B4B5A684FF480610E4800F080
:4006000029FA00287FF47EAF0022064B1A7279E73104081000001041B442020800001D41A834081070490208000066400000FA4400007A448C4202084001234008B50120C1
:4006400000F0D0FC08BD00BF704700BF5C4AD2F8803303F00F0303F1D00152F8212002F00702032A04D0042A05D092B9554914E0554A116811E003F1C002514951F822208C
:4006800002F01F02112A06D0132A04D04FF4FA4103E04E4901E04FF400418BBB484BD3F8902502F00100D3F88825C2F30172D3F8883513F0405F07D0414BD3F88835C3F3F1
:4006C0000173012B02D102E0012300E0002303B108B9032A46D13A48D0F88025C2F31103D0F88425C2F30C02D0F88005C0F300600130B1FBF2F202FB03F2B2FBF0F131E027
:40070000012B2FD12E4BD3F8402602F00100D3F80026C2F30172D3F8003613F0405F07D0274BD3F80036C3F30173012B02D102E0012300E0002303B108B9032A12D12048CB
:40074000D0F8002602F07F02D0F80036C3F30423D0F80006C0F3044002FB01F2B2FBF3F2B2FBF0F1164BD3F88033C3F3011321FA03F215494A601648D0F89030C3F30723E1
:4007800001330069000E0130B2FBF0F08860B2FBF3F3CB600B6103F5742202F23F220D48A0FB0202C2F387420A7503F2E7330A4AA2FB03239B098B61DB03CB61704700BFB4
:4007C0000000264000127A009442020800366E010000214083DE1B43D34D621008B50D4800F07CFEFFF730FFFFF730FF00221146042000F0BFF9084800F052FA074B1B6864
:4008000093F8513013B1064800F0BAFA00F0FCF808BD00BF5437081090490208BC4C0208C434081008B500F0C8FC074AD2F8883043F47003C2F88830BFF34F8FBFF36F8F46
:4008400000F0BFFC08BD00BF00ED00E010B504462146034801F0A4F80028F9D010BD00BF00006640054BD3F80833C3F30803002BF8D0024BD3F84003704700BF000066408A
:400880001F4B98422DD00CD840282ED003D8E8B1102828D02FE0802829D0B0F5807F28D029E0184B984228D006D8B0F1204F0DD0154B984212D01EE0144B98420AD0013353
:4008C000984209D0023B984215D101E0002070470F4870470F4870470F4870474FF4A0007047074870470D4870470D4870470D487047034870470C4870474FF4A4007047F7
:4009000006005200010000F0090000A0040000F0010052000200520003005200010050000200500005005200FF00520038B5124B1B6893F83130012B04D840F2C3110F486C
:4009400000F0D0FB0C4B1D682A6AB5F8B03013442C46D5F8B420D358002B0BDB084B1868FFF78EFF6B6801229A6063689B68002BFBD138BD034838BDBC4C02081835081062
:40098000104B0208020050001A4B186128B102230370FF23437000234380174B1B6893F850202AB300B583B0B3F93830ADF80030002301931149684600F04EFBBDF900300A
:4009C000002B08DB590903F01F03012202FA03F30B4A42F82130084B1B6893F8513023B102220849012000F077FA03B05DF804FB704700BF104B0208BC4C020895430208FA
:400A000000E100E04D44020808B50248FFF7BCFF08BD00BF244B020838B50B4B1B68D3F8B4301B58002B0DDA0D4604460B0C1B0423B140F2D521054800F054FBA9B2616034
:400A4000002038BD024838BDBC4C02085835081001008A0038B50368002B01DA002300E0094B73B90D460446C2600B0C1B0423B140F2BB21054800F035FBA9B2A16000203F
:400A800038BD014838BD00BF01008A005835081038B504460D4619B99921084800F022FB074B1B68D3F8B4301B59002B03DAE3682B60002038BD034838BD00BF98350810D2
:400AC000BC4C020801008A00254B1B6893F8313083423AD900293AD00B6813F01F0F38D170B50D4604461E4B1B6893F83130984204D340F2C3111B4800F0F4FA184B1B684A
:400B0000186AB3F8B03004FB0304174E34602A68D2080021686801F0DFFF00212046FFF77BFF346825B940F293310E4800F0DAFA2A4600212046FFF78DFF60B900210A4BF4
:400B40001868FFF769FF40B970BD084870470748704706487047064870BD054870BD00BFBC4C020858350810284B020803018A0001018A0010B504461346B2B9A9B9124BCB
:400B80001B6893F83130984204D340F2C3110F4800F0A8FA0C4B1B681A6AB3F8B03004FB03240B4B1C60002010BD43B149B1084A51609360111D2046FFF786FF10BD05484B
:400BC00010BD044810BD00BFBC4C020858350810284B020803018A002DE9F0411B4B1B68DC68236883422CD90D464609A0EB4610012303FA00F819B900F0DFFA074600E061
:400C00000027124B18680368002B01DA002300E00F4B83B9626852F8263018EA030F05D023EA080342F82630002400E0094C0021FFF7F2FE00E0084C25B9384600F0C1FA10
:400C400000E0064C2046BDE8F08100BF284B020801008A00020188000301880004018A000B4B1B68DB681A6882420CD94109A0EB4110012202FA00F05B6853F82130184224
:400C800003D004487047044870470448704700BF284B02080101880004018A0000018800024B1B680BB9014B18607047344B02082DE9F8430446884691461D46089F2C4B21
:400CC0001B681BB9B5212B4800F00CFA284B1B682C2000FB04F01C18EEB21E50C5F3072363602D0CA560244B1B6893F831309E4204D340F2C311214800F0F4F91E4B1B683B
:400D0000196AB3F8B02006FB02162661666893F832309E4204D340F2DF11184800F0E2F9154B1B681D6A803605EB46156561A668330C1B0423B14FF4FF71104800F0D2F91F
:400D4000330C1B0423B140F2FF110C4800F0CAF9B3B243EA0646AE60C4F81C90C4F820800023A36117B1B7F90030A381BDE8F883344B0208D8350810BC4C020858350810D0
:400D8000F0B58FB0044618B95221274800F0AAF9A369072B03D95621234800F0A3F9E36A1BB95821204800F09DF9236B1BB959211D4800F097F907AD04F114060FCE0FC57A
:400DC00037682F6002AD26460FCE0FC533682B60164B1B68B3F93620079B1344ADF83030089B0D93A26AE16A0CAD00953B460A98FFF75EFF00210091069B0A460598FFF75B
:400E000057FF216B284600F027F9BDF93030002B08DB590903F01F03012202FA03F3044A42F821300FB0F0BDD8350810BC4C020800E100E0F8B506460F461D4614461AB987
:400E4000FD211F4800F04EF91E4B1B681BB9FE211B4800F047F91B4B1B682C2101FB063001FB07314B68012202FA03F31B04466802FA06F60269EAB18F69EFB91268002AD1
:400E800001DA002200E0104AC2B92288134323600369DC6001238B614D620469330C1B0423B140F2BB21094800F01CF9B2B2A2600020F8BD0648F8BD0648F8BD0548F8BD50
:400EC000D8350810344B020801008A005835081004028A0007028A00F8B505460F4616460E4B1B6823B94FF4AF710D4800F0FAF80A4B1B682C2404FB0534236A23B94FF4EA
:400F0000B171074800F0EEF8E369B34204D9236A43F826700020F8BD0248F8BD344B0208D83508100A028A0070B582B000230193044620B940F2D111284800F0D3F82369DA
:400F400023B94FF4E971254800F0CCF8636923B940F2D311214800F0C5F8236A23B94FF4EA711E4800F0BEF86369DD682A0C20D012041A601B682069194B1B68D3F8B43087
:400F8000C358002B15DA01A9FFF782FD60B9019803681E0CDBB2E269934206D2226A52F8233013B1984700E0002631462069FFF733FDADB275B16369ADB21D601B68636A9C
:400FC0001BB198470023636202E0A36A03B198470023A36163691B6802B070BDD8350810BC4C020810B50446074B1B6823B940F2B111064800F076F8034B1B682C2000FBD8
:401000000430FFF791FF10BD344B0208D835081038B50D4B9A680D4B9A420FD10D46044621B940F237110A4800F05CF804F11003064A52F8230042F8235038BD1030054BA2
:4010400053F8200038BD00BF00ED00E000400208183608100000081048B338B504460D464368072B03D93221134800F03BF8B4F900306268002B08DB5201D2B203F160438A
:4010800003F5614383F8002305E003F00F035201D2B20A49CA540A4B9A680A4B9A4208D12946B4F90000FFF7B3FF002038BD06487047002038BD00BF1836081014ED00E06A
:4010C00000ED00E0004002080100560008B5034B1B7800FB03F000F067F808BDA842020801BEFEE738B50D46044C18220146204601F05CFDA5610020FFF7F2FFC04802086A
:40110000FEE700BF08B50268254BDA6142681A6282685A62C2689A620269DA6242691A6382695A63C2699A631E4A916AD963D16A1964516A5964516B9964926BDA64F1EE06
:40114000103A13F0900F27D0026A154B1A65426A5A65826A9A65C26ADA65026B1A66426B5A66826B9A66C26BDA66026C1A67426C5A67826C9A67C26CDA67026DC3F8802046
:40118000426DC3F88420826DC3F88820C26DC3F88C20026EC3F89020FFF7B2FF08BD00BFC048020800ED00E00230800803D001300238FCD100BF00BF7047EFF3108072B6C0
:4011C000704780F31088704710B30246C3680BB303680BB330B40579114B03EB85035C682346002103E0934205D019465B69002BF9D1012000E0002080B124B9084B03EBC2
:4012000085056A6000E04A6111610023536105E000207047002070470020704730BC7047384B020830B583B004460D46022808D9042806D0032804D040F6B2112848FFF7CC
:4012400051FF6B1EDBB2012B08D9042D06D0082D04D040F6B3112248FFF744FF214800EB84004468042D12D0012D1AD111E0A3681D420AD1E3681A6800925B680193236827
:40128000294668469847174B9C61646902E0002000E0002014B3144B9842E8D1012DE6D11CE0022D01D104E01C466369002BFBD103E00C4B9C6904B1246900200CE0A368C8
:4012C0001D4208D1E3681A6800925B68019323682946684698472469002CF0D103B030BD5C360810384B0208FF00420010B5044620B940F6A1211748FFF7F4FE164A1368E5
:40130000DB6803F5F2431B6823601368DA6802F5F04212686260D96847F604028A58A260D96847F608028A58E260D96847F60C028A582261D96847F610028A586261D9689A
:4013400047F614028A58A261DA6847F61803D358E36110BD5C360810BC4C020810B5044620B940F6C9211748FFF7BCFE164B1B68DA68616802F5F0421160D968A06847F67D
:4013800004028850D968E06847F608028850D968206947F60C028850D968606947F610028850D968A06947F614028850D968E06947F618028850DB68226803F5F2431A60E7
:4013C00010BD00BF5C360810BC4C020870B50446012804D94FF426713A48FFF783FE3A4B9B682BB101210846FFF71CFF054600E00025002D5ED1FFF7E0FE0646324B9B682C
:401400001BB104210120FFF70DFF304B1B6893F8432042B19B68D3F8E03013F0100F02D02B48FFF763FF4FF0B0539B899BB223B14FF0B0539B899BB201E04FF48073B3F523
:40144000807F03D1204602F007F81AE0214A136943F004031361012C01D030BF07E020BF194B1B7803B120BF0122174B1A70174B1B681A68D3F89430D35803F00303022B20
:40148000E4D0124B1B6893F8432042B19B68D3F8E03013F0100F02D00D48FFF75FFF3046FFF78FFE084B9B684BB108210120FFF7B9FE04E002210120FFF7B4FE064D284669
:4014C00070BD00BF5C360810384B0208BC4C0208544B020800ED00E0FF004200014B1860704700BFBC4C02082DE9F8430E46074618B93A217548FFF7F5FD1EB93B21734803
:40150000FFF7F0FD002F00F0DA80002E00F0DA8032686F4B13401BB14A216C48FFF7E2FD72686C4B13401BB14B216848FFF7DAFDB36813F0FC2F03D04C216448FFF7D2FDDD
:40154000F36813F0FC2F03D04D216048FFF7CAFD337D032B03D94E215C48FFF7C3FDB369B3F5803F03D34F215848FFF7BBFDF36D072B03D950215548FFF7B4FD336EB3F536
:40158000803F03D351215148FFF7ACFD736EB3F5803F03D352214D48FFF7A4FD736843F000437B60B3683B61F3687B613369BB61337D9B07FB61B3693B62336803F460689C
:4015C000736803F00409002435E02546A31D06EB83035A68404B13401BB163213B48FFF781FDAB1D06EB8303596805F1200247F822105B6813F0012F0BD1B8F5606F08D19E
:40160000B9F1000F05D04FF47842344B23F8152003E00022314B23F81520726F02F11C7303F58033520093FBF2F31BB22C4A42F825300134E4B20F2CC7D9F36DC7F81832CB
:40164000F36DC7F81032336EC7F82832336EC7F82032736EC7F83832736EC7F8303296F87030DBB1B36EB3F1804F03D382211748FFF738FDF36E23F44F0323F0FF031BB195
:4016800083211248FFF72EFD6FF04043C7F80433B36EC7F80033F36EC7F84433D7F8003F3F2B02D0D7F8003F13B90B23C7F8003F336843F400133B600020BDE8F883094828
:4016C000BDE8F8830748BDE8F88300BF0C3808100811DF0001FE302088CA887EC04C0208E04C02080100060038B50D46044618B9B5211748FFF7F6FC2CB30023236063608E
:401700004FF0031222616261A361E361236206E003F12002002144F822100133DBB20F2BF6D90023C4F81832C4F82832C4F838325DB16FF04043C4F804330020C4F8400386
:40174000C4F8440338BD034838BD002038BD00BF0C3808100100060008B50368002B0ADBD0F8A032002BFBDB036843F0004303600220FFF7ABFC08BD38B505460C460129AB
:4017800004D940F271110648FFF7ACFC012C04D16B6843F480336B6038BD01236B6238BD0C38081038B505460C460F2904D94FF415710848FFF796FC0F2C07D8203455F8F0
:4017C000243013F0012F03D0002038BD002038BD012038BD0C38081038B505460C460F2904D940F222211048FFF77CFC0F2C14D821462846FFF7D6FF80F0010010F0FF0FD3
:4018000005D06B6813F0080F09D1002038BD6B6813F0040F05D1002038BD002038BD012038BD012038BD00BF0C38081038B505460C460F2904D940F27B210648FFF752FCC8
:401840000F2C04D8603455F8240080B200E0002000B238BD0C380810F8B506460C4615460F2904D940F27B311948FFF73BFC0F2C2BD8736813F0800F22D104F1200356F8EC
:40188000233013F4806F1BD07768C7F302170137012303FA07F7736813F4807F02D1102F00D9102721463046FFF796FF20B9ADB2B5FBF7F52DB203E03FB295FBF7F52DB29E
:4018C000044B33F81430ED1A2DB22846F8BD00BF0C380810C04C020870B505460C4616460F2904D940F21F411648FFF7FBFB0F2C23D86B6813F0020F21D132462146284685
:40190000FFF7AAFF42F2107303FB00F2002807DD0D4B53F8240000EBD07002EB600306E0094B53F8240000EBD070A2EB6003064A52F8240093FBF0F002E0002000E0002021
:4019400000B270BD0C380810E04C020810B4D0F8003303F00F03072B06D900230DE0D0F84043CC54013300E000239342F7D306E0D0F8404321F8134001339342F8D35DF80A
:40198000044B704710B51446D0F80833C3F308039A4200D31C462246FFF7D8FF204610BD036813F4006F01D0802200E04022D0F80832C3F30803934203D0C0F84012012099
:4019C00070470020704700BF10B4D0F8003203F00F03072B06D900230DE0CC5CC0F84042013300E000239342F7D306E031F81340C0F8404201339342F8D35DF8044B7047B3
:401A000010B51446036813F4006F01D0802200E04022D0F80832C3F30803D31AA34200D81C462246FFF7D0FF204610BD2DE9F84305460C46036813F4006F02D04FF080085A
:401A400001E04FF04008D5F8007207F00F07A26A012A19D9D4F82490E262561EB9F1000F00D026B940F273512548FFF73BFB324649462846FFF7C4FFA36A1B1AA362072FAF
:401A800000D9400048446062D5F80832C3F30803984533D0A36A012B30D10023A362072F02D8636A1E7801E0636A1E88FFF785FBC5F840624FF40073C5F8803FD5F8803F5B
:401AC000FFF77FFBD5F8883F23F4007222F0010242F4007623F4EE6323F0030323B140F236410848FFF7FEFAC5F8886F236843F002032360236B0BB101209847BDE8F883F8
:401B000048380810883808102DE9F04105460C46036813F4006F01D0802600E040267608A769D4F81C8017B1B8F1000F04D14FF499613148FFF7D6FA424639462846FFF781
:401B400021FF236A03442362E3691B1AE36173BBA368FBB1E3689E4201D8013E00E05E1E2B6813F4006F01D0802300E040239E4204D34FF423712148FFF7B4FAD5F8043344
:401B800023F0FF03F6B21E43C5F804630123C5F8C83F02E00023C5F8C83F636823F001036360236B33B304209847BDE8F081A169D5F8002302F00F02072A00D9400008446D
:401BC000A0619E4216D95C1E2B6813F4006F01D0802300E040239C4204D34FF423710748FFF780FAD5F8043323F0FF02E3B21343C5F80433BDE8F081483808108838081013
:401C0000002800F0A48170B50546002900F0A18116460C460B78022B03D93F21A248FFF761FA637B023BDBB2062B03D940219E48FFF758FAA37B3BB1022B05D0032B03D096
:401C400041219948FFF74EFA94F82130012B03D942219548FFF746FA94F82830012B03D943219148FFF73EFA2378012B06D86368083B082B94BF0023012307E0A37F2BB1CC
:401C80006368013B062B94BF002301231BB145218548FFF727FAA368053B042B03D946218148FFF71FFA6369FF2B03D947217E48FFF718FAA369FF2B03D948217A48FFF76C
:401CC00011FAA37C6BB1237833B9A368092B05D1A37B2BB1012304E0012302E0012300E000231BB14A217048FFF7FCF9636B23F4366323F00D031BB14C216B48FFF7F2F98B
:401D0000E36B23F4EE6323F003031BB14D216648FFF7E8F92378022B01D1A37F13B16268013A00E00022237F13B14FF4803100E00021A368082B02D84FF4006300E0002372
:401D40000B4302F00F02134343F000732B60226B2B6813F4006F01D0802300E040239A4203D362215048FFF7BDF9A26B2B6813F4006F01D0802300E040239A4203D36321C2
:401D80004948FFF7AFF9626A2B6813F4006F01D0802300E040239A4203D364214248FFF7A1F923781B0603F040732B64637F0BB1402200E00022A37C13B14FF4806300E03B
:401DC00000231343227C12B14FF4807200E000221343627C12B14FF4007200E000221A43E36A013B1B0403F470231343627B013A02F007021343A27B120102F0300213432C
:401E0000AB64237B13B14FF4807200E00022E37B23B92378022B03D1012302E0012300E0002313B14FF4007300E000231A43A368013B03F00F031343C5F80033227DA369E0
:401E40001B0403F47F031343C5F81033E26AD5F8003303F00F0303339A4201D3102A03D97A211148FFF73EF9E37F23B12378012B03D0002302E0002300E0012313B14FF403
:401E8000807200E00022637B013B03F007031A43A37B1B0103F0300313436B64237B2BB14FF4807203E000BFCC3808100022A368013B03F00F0313432278012A02D14FF429
:401EC000803200E000221343C5F8003294F83030C5F8043394F8203013B14FF0007200E0002294F82130012B02D14FF0807300E00023134394F82820012A02D14FF4803288
:401F000000E00022134394F8242013432B6594F83830C5F80432636B23F4926323F002031B051B0DC5F8C83FE36B23F08C035B055B0DC5F8883F76B1002070603060B060BB
:401F4000F0603062F0623063044B736370BD04487047034870BD002070BD00BFEFCDAB000160AA000B694A69934202D34869181A7047CA684869101A184470472DE9F0417D
:401F800007460D46036813F4006F02D04FF0800801E04FF040084FEA5808D7F80863C6F308062C6926E00134EB689C4200D100246B699C420FD12B6B0BB1082098476B6950
:401FC0009C4208D10023C7F8C83F0CB1013C13E0EC68013C10E0D7F84023D7F8003303F00F03072B02D8AB681A5502E0AB6823F81420013E002ED6D12C61EC6829463846E6
:40200000FFF7B0FF201A804519D908B1441E00E000243B6813F4006F01D0802300E040239C4204D34FF423710648FFF75BF8D7F8040320F0FF03E0B21843C7F80403BDE8B8
:40204000F08100BF8838081038B504460D46D0F8003E13F0080F35D0D0F8CC3F13F448730AD04A681A434A60C0F8C03FD0F8C03F0B6B0BB110209847D4F8CC3F13F4006F75
:4020800009D06B6843F400636B604FF40063C4F8C03FD4F8C03FD4F8CC3F13F0010F11D0EB6923B129462046FFF72EFD05E0AB681BB129462046FFF761FF0123C4F8C03F2C
:4020C000D4F8C03FD4F8003E13F0040F2ED0D4F88C3F13F4A0630AD02A681A432A60C4F8803FD4F8803F2B6B0BB120209847D4F88C3F13F0010F08D029462046FFF796FCAD
:402100000123C4F8803FD4F8803FD4F88C3F13F4007F0BD00022C4F8882F2B6823F001032B60EA622B6B0BB10220984738BD00BF00287DD00346002A7CD070B4506800024E
:4021400080B29568AD0405F480252843D468240404F4403404431069000600F0E0602043147F0CB1012400E0002420430C1DA4011851D06828B903EB81100024C0F808417D
:402180000CE0012805D1146803EB8110C0F8084104E003EB81100124C0F80841106938B9546903EB8110C0F80C419469C0F81041146803EB8110C0F81441906CB0F1FF3F1B
:4021C00017D0946A04F00F04166B360206F470663443956B2D0405F470252543146C2403A4B22C430001C0B2204303EB8114C4F82001506A00F00300D66A360106F03006DA
:402200003043556B2D0205F440752843D46BA401E4B20443506C800000F00C00204303EB8113C3F82401126AC3F83821002003E0024870470148704770BC70470100B60037
:40224000002867D038B50546002965D00B7A1BB10B88B3FA83F35B090C461BB131212F48FEF740FF637A1BB16388B3FA83F35B091BB132212948FEF735FFA3791F2B03D9CD
:4022800033212648FEF72EFF2379032B03D934212248FEF727FF6379032B03D935211F48FEF720FFE379032B03D936211B48FEF719FF6288238843EA0243EB60A3791B0647
:4022C00003F0F851E279130403F480330B43227A920002F004021343627A920202F480621343E27A12B14FF4006200E0002213436279120202F440721343A27A0AB1082214
:4023000000E000221343227902F0030213432B61002038BD02487047014838BD0C3908100100D60070B50E461446054620B94FF489715C48FEF7D6FE24B940F213115948D4
:40234000FEF7D0FE002D00F0A780002C00F0A680731EDBB2022B04D94FF48F715148FEF7C1FE23683BB1B3F1804F04D040F21F114C48FEF7B7FE2379032B04D94FF4907113
:402380004848FEF7AFFE637943B1082B06D0102B04D040F221114348FEF7A4FEE3883BB1B3F5006F04D04FF491713E48FEF79AFE23896BB1B3F5807F0AD0B3F5007F07D09C
:4023C000B3F5407F04D040F223113648FEF78AFEA37A33B1802B04D04FF492713148FEF781FEE37A33B1402B04D040F225112D48FEF778FE237B33B1202B04D04FF49371DE
:402400002848FEF76FFE23682B60227961790A43E3881A4323891A43A37A1A43E37A1A43237B134311B94FF4805200E000221343012E01D0032E14D16B606279082A01D102
:40244000032200E00122C5F8082FAA6A617B09B1012100E000210A43AA622A6A42F001022A62023EF6B2012E1AD8AB606379082B01D1032300E00123C5F8143FAB6A627BA4
:402480000AB1022200E000221343AB622B6A43F002032B62002070BD034870BD024870BD002070BD4C39081001002E00F8B507460C4616461D464B1EDBB2022B04D940F2EC
:4024C000F9211648FEF70EFE032E04D940F2FA211248FEF707FE3DB1B5F5006F04D040F2FB210E48FEF7FEFD012C01D0032C07D17B6823F4006323F0070333432B437B6007
:40250000023CE4B2012C07D8BB6823F4006323F007031E433543BD60F8BD00BF4C39081043684B609A688A609A6851609960086103680133036070470369426881689160FA
:402540008268416851605A68904201D182685A60002202611A68013A1A601868704700BF094B9B6A1B680BB9012300E0002323B14FF0FF32044BDA627047034B9A6AD26882
:40258000D2685268DA627047744B02082DE9F0413C4BD3F81831002B65D13A4BD3F814410134C3F81441CCB99B6A1B6843B14FF03F0383F31188BFF36F8FBFF34F8FFEE788
:4025C000304B9A6AD3F8F8109962C3F8F820D3F820210132C3F82021FFF7C2FF294BDB6A9C4203D2002645E0012600E00026254B9B6A1B680BB9012300E0002323B14FF0EF
:40260000FF32204BDA6235E01E4B9B6ADB68DD686B689C4202D21B4AD3622BE005F104084046FFF789FFAB6A1BB105F11800FFF783FFEB6A134AD2F80C21934202D9114A6C
:40264000C2F80C310F4F07F1300003EB83039A0041461044FFF764FFEA6AD7F80031DB6A9A42C1D2C3E7074AD2F824310133C2F824310026034BD3F8283103B1012630464D
:40268000BDE8F081744B0208304BD3F8183123B101222E4BC3F82821704710B52B4B0022C3F82821D3F800311B6B1A68B2F1A53F0BD15A68B2F1A53F07D19A68B2F1A53F0F
:4026C00003D1DB68B3F1A53F07D0204BD3F80001D3F80011343100F09BF81C4BD3F80C310AE043B94FF03F0383F31188BFF36F8FBFF34F8FFEE7013B03EB83018A001349CB
:402700000A44126B002AECD008469900CC18A2000244546B64685463303019448A0008320244944206D1606803EB83018A0007490A445063054903EB830082000A44526B1E
:40274000D268C1F80021C1F80C3110BD744B0208074B19680868B0E8F04F80F30988BFF36F8F4FF0000080F311887047AFF30080744C0208000000000000000000000000FD
:40278000EFF30980BFF36F8F154B1A681EF0100F08BF20ED108A20E9F04F10602DE909004FF03F0080F31188BFF34F8FBFF36F8FFFF76AFF4FF0000080F3118809BC1968F0
:4027C0000868B0E8F04F1EF0100F08BFB0EC108A80F30988BFF36F8F704700BFAFF30080744C020808B54FF03F0383F31188BFF36F8FBFF34F8FFFF7C9FE18B14FF080522E
:40280000024B1A60002383F3118808BD04ED00E008B54FF03F0383F31188BFF36F8FBFF34F8F4FF441710248FEF75CFCFEE700BF8839081070B539B900240AE015F8010B35
:40284000FEF704F8013402E016460D460024B442F4DB204670BD00BF70B561B900240FE0FEF700F8C0B2287001340A2808D00D2806D0013502E016460D460024B442EFDB28
:40288000204670BD08B502490248FFF7DDFB08BD204D02080000664008B5114B1B785BB9104A11491148FFF7ABF911491148FEF7D3FB01220A4B1A700E4BB3F90030002B44
:4028C00008DB590903F01F03012202FA03F30A4A42F82130054A136843F00043136008BDA04C0208204D0208D839081000006640852808100835081000E100E038B50446C4
:402900001E4B1A68916892F8703003F00203DBB243F08043C1F800340369FF2B0AD89168B2F874200A44916821F47F411B029BB20B439360114B1A68906892F873100323A2
:4029400003FA01F592F8703092F8721003FA01F1294303F002030B4343F00043C0F800349368D3F80034064D00212846FEF7BCFEA1682846FEF7B8FD38BD00BFBC4C0208B9
:4029800000001D4108B5084B1B7963B907490848FEF762FB044B5B792BB90122024B5A710448FFF7ABFF08BDA44C0208E5290810F8340810543A081008B5084B1B7913F063
:4029C000010F06D1FFF7DEFF044A137943F0010313710348FEF7C0FE08BD00BFA44C020800001D4110B5094BD3F81042072C04D940F231610648FEF775FB044BC3F8104295
:402A0000D3F81022D3F8103210BD00BF00001D41183A081008B50B4B1B7833B90A490B48FFF70EFC0122074B1A70084A02231362536943F4807343F0010353610020FEF72F
:402A400045FB08BDAA4C02082C3B08100002264008B50C4B1B783BB90B4A02210B48FFF761FC0122074B1A700848036843F0004303604FF40063064A12780221FFF716FD72
:402A800008BD00BFAB4C0208383B081000001041B442020808B50C4B1B783BB90B4A01210B48FFF73FFC0122074B1A700848036843F0004303604FF40063064A12780121EA
:402AC000FFF7F4FC08BD00BFAC4C0208483B081000001041B542020802440346934202D003F8011BFAE7704770B50E46054618B183690BB900F022FAAB69AC6813B92846ED
:402B000000F01CFA224B9C4201D16C6808E0214B9C4201D1AC6803E01F4B9C4208BFEC68A3891B0701D523693BB92146284600F0A5F810B14FF0FF3070BD013EA36816F886
:402B4000011F013BA36091B1002B04DAA269934206DB0A2904D023685A1C22601970EDE72246284600F036F80130E7D1E2E7002B08DA22460A21284600F02CF80130D9D061
:402B80000A2070BD23680A205A1C2260187070BD603B0810803B0810A03B0810024B01461868FFF7A1BF00BF1843020810B5034642B111F8014B03F8014B013A002CF7D189
:402BC0001A4400E010BD934202D003F8014BFAE710BD0000F8B50F461446064618B183690BB900F0ABF9224B9C4201D1746808E0204B9C4201D1B46803E01F4B9C4208BF6F
:402C0000F468A369A360A3891A0709D523693BB123682069181A63699842FDB20FDB08E02146304600F02AF80028F1D04FF0FF30F8BD2146304600F017F90028F6D1A36847
:402C4000013BA36023685A1C22601F706269431C934204D0A389DB0707D50A2D05D12146304600F001F90028E0D12846F8BD00BF603B0810803B0810A03B0810324B70B59C
:402C80001D6806460C4625B1AB6913B9284600F055F92E4B9C4201D16C6808E02C4B9C4201D1AC6803E02B4B9C4208BFEC68B4F90C309AB215071DD4D00602D40922326072
:402CC0003AE0510712D5616B41B104F14403994202D0304600F01CFA00236363A38923F02403A3810023636023692360A38943F00803A38123694BB9A38903F42073B3F574
:402D0000007F03D02146304600F0C6F9A28912F0010305D00023A36063695B42A36103E0920758BF6369A36023695BB9B4F90C3003F0800080B230B143F04003A3814FF0D2
:402D4000FF3070BD002070BD18430208603B0810803B0810A03B08108A892DE9F041054610070C4659D44B68002B02DC0B6C002B17DDE66AAEB102F48052002392B22F68CA
:402D80002B600AB1606D15E0216A01232846B047411C0FD12B686BB11D2B01D0162B03D12F600020BDE8F081A38943F04003A381BDE8F081A3895A0705D56368C01A636B62
:402DC0000BB1236CC01A00230246E66A216A2846B047431CA38906D129681D293AD8214ACA40D60736D500226260D9042269226004D5421C01D12B6803B96065616B2F6015
:402E00000029CED004F14403994202D0284600F07FF900206063BDE8F0810F69002FC0D093070E6808BF4B690F6018BF0023C7EB06088B6002E00744C0EB0808B8F1000F9D
:402E4000AFDD43463A46216AA66A2846B0470028F1DCA38943F04003A3814FF0FF30BDE8F08100BF0100402038B50B6905460C46DBB118B183690BB900F060F80C4B9C42DE
:402E800001D16C6808E00B4B9C4201D1AC6803E0094B9C4208BFEC68B4F90C302BB121462846BDE83840FFF757BF002038BD00BF603B0810803B0810A03B0810014900F0F0
:402EC000A9B800BF692E0810002310B5044603604360836081814366C281036143618361194608225C30FFF7F7FD054B6362054BA362054BE362054B2462236310BD00BF28
:402F000089320810AB320810E33208100733081070B568234D1E5D430E4605F1740100F045F9044640B1002180E842000C30A06005F16802FFF7D0FD204670BD836910B5F9
:402F4000044633BB8364C3640365124B124A1B688262984204BF0123836100F01FF86060204600F01BF8A060204600F017F80022E06004216068FFF7A7FF01220921A06809
:402F8000FFF7A2FF02221221E068FFF79DFF0123A36110BD5C3B0810BD2E0810F8B51C4B1E68B369074613B93046FFF7C7FF4836B4687368013B04D4B4F90C507DB1683445
:402FC000F8E733680BB13668F2E704213846FFF79FFF30600028F6D10C233B60F8BD4FF6FF73E3810123A38165662560A560656025616561A5610822294604F15C00FFF740
:403000006BFD6563A563A564E5642046F8BD00BF5C3B08102DE9F8438046894600F14804002694B1A5686768013F0CD4AB89012B07D9B5F90E30013303D029464046C847BC
:4030400006436835F0E72468EBE73046BDE8F88370B50E46B1F90E10002990B014461D4606DA00232B60B3891A060ED540230EE001AA00F06FF90028F3DB029A02F47042DD
:40308000A2F500535A425A412A604FF480630020236010B070BD00008B8973B59E0705460C4610D401AB6A46FFF7D2FF00990646284600F07BF868B9B4F90C309A0522D4D5
:4030C00043F00203A38104F14703236023610123636118E00D4BAB62A389206043F08003A381009B6361019B20614BB1B4F90E10284600F041F918B1A38943F00103A38138
:40310000A0893043A08102B070BD00BFBD2E081038B50546002946D051F8043C0C1F002BB8BFE41800F04AF91F4A1368114613B96360146032E0A3420ED92268A018834212
:4031400004BF18685B68636004BF121822600C6024E0A24203D813465A68002AF9D118681918A1420BD12168014458188242196014D1106852685A60014419600EE002D996
:403180000C232B600AE021686018824204BF10685268626004BF091821605C602846BDE8384000F00CB938BDB44C020870B5CD1C25F0030508350C2D38BF0C25002D06464D
:4031C00001DBA94202D90C23336046E000F0F6F8234B1C681A462146A1B10B685B1B0ED40B2B03D90B60CC18CD501EE08C420DBF63684B686360136018BF0C4615E00C4657
:403200004968E9E7174C23681BB9304600F02CF820602946304600F027F8431C18D0C41C24F00304A0420DD12560304600F0C7F804F10B00231D20F00700C31A0ED05A42F3
:40324000E25070BD211A304600F00EF80130EBD10C233360304600F0B2F8002070BD00BFB44C0208B04C020838B5064C002305460846236000F0D6F8431C02D1236803B1C0
:403280002B6038BD584D020810B50C46B1F90E1000F096F80028ABBF636DA3891B1823F48053ACBF6365A38110BD2DE9F0411F468B89DB0505460C46164605D502230022F9
:4032C000B1F90E1000F068F8A389B4F90E1023F48053A38132463B462846BDE8F04100F017B810B50C46B1F90E1000F055F8431CA38915BF606523F4805343F48053A3815D
:4033000018BFA38110BDB1F90E1000F013B8000038B5074C054608461146002222601A46FFF788FA431C02D1236803B12B6038BD584D020838B5064C002305460846236078
:4033400000F050F8431C02D1236803B12B6038BD584D020838B5074C0023054608461146236000F047F8431C02D1236803B12B6038BD00BF584D020838B5064C0023054664
:403380000846236000F03EF8431C02D1236803B12B6038BD584D020838B5074C054608461146002222601A4600F034F8431C02D1236803B12B6038BD584D02087047704718
:4033C00038B5074C054608461146002222601A46FFF742FA431C02D1236803B12B6038BD584D0208024B58221A604FF0FF307047584D0208024B58221A604FF0FF3070474C
:40340000584D0208024B58221A600020704700BF584D0208024B58221A604FF0FF307047584D0208044A05491368002B08BF0B461844106018467047B84C0208604D020842
:40344000F8B500BFF8BC08BC9E467047F8B500BFF8BC08BC9E46704701B40248844601BC604700BF2946020847656E6572617465645F536F757263655C50536F43365C70D7
:40348000646C5C647269766572732F7065726970686572616C2F6D637764742F63795F6D637764742E6800004A65616E206D6D696368656C207069662070616620706F7572
:4034C000660D00000300000001000000010000000000000005036000040000000100000000000000010000000604600008000000F04A02083D0608108A0000000700000044
:403500005A000000070000002E00000007000000130000000700000047656E6572617465645F536F757263655C50536F43365C70646C5C647269766572732F70657269704F
:40354000686572616C2F6970632F63795F6970635F6472762E68000047656E6572617465645F536F757263655C50536F43365C70646C5C647269766572735C706572697034
:40358000686572616C5C6970635C63795F6970635F6472762E68000047656E6572617465645F536F757263655C50536F43365C70646C5C647269766572735C70657269709A
:4035C000686572616C5C6970635C63795F6970635F6472762E63000047656E6572617465645F536F757263655C50536F43365C70646C5C647269766572735C70657269705F
:40360000686572616C5C6970635C63795F6970635F706970652E630047656E6572617465645F536F757263655C50536F43365C70646C5C647269766572735C7065726970BC
:40364000686572616C5C737973696E745C63795F737973696E742E630000000047656E6572617465645F536F757263655C50536F43365C70646C5C647269766572735C705D
:4036800065726970686572616C5C737973706D5C63795F737973706D2E6300000000204000002440000000400000000000002340000030400000314000009F4000002240C9
:4036C0000000104002020202020202020210101D800017007500FF030602063604102000000000007FC0000000040000000000000019324B647D00804000080B1000000008
:403700000000FF012002001F00800004FF081018001000140018001C4044484C5000000008100000080000000400000004100000001200000421000000210000001600002F
:4037400040114002C41300138013A013200000001C0000000000214000002540000001400000344000002440000031400000324000001F4100002340000011400101010170
:403780000101010101101010800019005500F0000501053B04101C01010000000FC000000004000001010101011D3A57789600082000101208000000001F00000010000F5A
:4037C000002000023F06080E00080009000A000B24282C3034000000100000009000000088000000080000008000000004F0000000F00000400200002005A000D0010001DD
:403800008001A001200000001000000047656E6572617465645F536F757263655C50536F43365C70646C5C647269766572735C7065726970686572616C5C7361725C637997
:403840005F7361722E63000047656E6572617465645F536F757263655C50536F43365C70646C5C647269766572735C7065726970686572616C5C7363625C63795F736362EA
:403880005F756172742E680047656E6572617465645F536F757263655C50536F43365C70646C5C647269766572735C7065726970686572616C5C7363625C63795F7363622F
:4038C0005F636F6D6D6F6E2E6800000047656E6572617465645F536F757263655C50536F43365C70646C5C647269766572735C7065726970686572616C5C7363625C6379B9
:403900005F7363625F756172742E630047656E6572617465645F536F757263655C50536F43365C70646C5C647269766572735C7065726970686572616C5C6D637764745CA8
:4039400063795F6D637764742E63000047656E6572617465645F536F757263655C50536F43365C70646C5C647269766572735C7065726970686572616C5C6374625C6379CA
:403980005F6374622E63000047656E6572617465645F536F757263655C50536F43365C70646C5C72746F735C4672656552544F535C31302E302E315C536F757263655C709F
:4039C0006F727461626C655C4743435C434D34465C706F72742E6300000000000C000000080000000002000000000000000000000000000000000000000000000000000087
:403A0000000000000B0000000000000000000000000000000000000047656E6572617465645F536F757263655C50536F43365C70646C5C647269766572732F7065726970EF
:403A4000686572616C2F7361722F63795F7361722E6800000000000001000000683A08100100000002000000C3CE20538800049099000200020002000002000E03000000EF
:403A80000100000000000000000000000000000000000000000000000000000000000000000000000000000000000000000000000000000000000000000000000000000005
:403AC00000000000010000000000000000000000000000000000000000000000B0040000670000000000000000000000000000000200000000400000004000000000000028
:403B00000100000003000000FFFFFFFF03000000FFFFFFFF03000000FFFFFFFF03000000FFFFFFFF03000000FFFFFFFF0080140000010500000101000000000003080008DA
:403B400000000000000000000000000003080008000000000000000043000000B84202080000000000000000000000000000000000000000000000000000000000000000EB
:403B80000000000000000000000000000000000000000000000000000000000000000000000000000000000000000000000000000000000000000000000000000000000005
:403BC0000000000000000810004002088C020000E43B08108C4202083406000054490208080400000A000000A00F00000048E80100127A0000093D0000127A0000127A0005
:403C000008000000401F00000000A00F0303000000000000603B0810803B0810A03B081000000000000000000000000000000000583B081000000000000000000000000044
:403C4000000000000000000000000000000000000000000000000000000000000000000000000000000000000000000000000000B8420208B10208108D02081000000000CE
:403C800080B2C10050B3164B1B681A6AB3F8B030C3EBC303D358002BF5DA3E22114B1A6041F61E7204331A60A3F584730622C3F8182521F07F41C3F81C15D3F81C35084BF9
:403CC0001A68116AB2F8B030C3EBC3030B4400225A60054BD3F81C35002BFADA704700BFBC4C02080401264000002640F8B5274B1B6893F83130052B04D840F2C3112448CE
:403D000000F082FA214F3A68166AB2F8B03003EB83031E4452684FF26003D458A4B200F053FA05463B681968D3F890208A58013C032C27D8032A0CD1164A127812F0FF0FCD
:403D400007D10822B2601968D3F890208A58032AF9D01968D3F884208B588858C0F307221B0E581C02FB00000B4B03FB00F00B4B1B680B4AA2FB03239B09B0FBF3F0823019
:403D8000FFF77EFF284600F02FFAF8BDBC4C0208183508100B00001640420F0098420208D34D62104378FF2B23D110B500F00CFA0446104B1B6893F83130042B04D840F2D0
:403DC000C3110D4800F020FA0A4B1A68136AB2F8B02003EB8203DB685A68136843F001031360136813F0010FFBD1204600F0FCF910BD7047BC4C0208183508102DE9F04738
:403E000007468846554B1B6893F83130012B04D840F2C311524800F0F7F9504B1B681C6AB3F8B0201444D3F8B420161993F85030002B79D04B4B1B7813F0FF0F02D04FF0C1
:403E4000000901E04FF00109B9F1000F38D0434B1B6893F83130052B04D840F2C311404800F0D2F93D4B1A68116AB2F8B03003EB83030B44D2F8B420D358002B22DB002019
:403E800000F092F9384B98421ED00023374A12690121184600F080F918B1354D17E0013500E00025002000F07FF92F4B984202D0304B9D42F3D92F4B9D4207D92C4D06E04B
:403EC000002504E02A4D02E0294D00E00025002D41D100F079F98246274BD3F81C35002B10DA224A0121204600F086F960B94046FFF7C6FE57B13368002BFCDB00F05CF933
:403F0000054604E01A4D02E0194D00E01B4DB9F1000F05D00121002000F05EF90028F9D1504600F061F916E000F04EF980460F4A0121204600F060F938B947B13368002BA6
:403F4000FCDB00F039F9054602E0094D00E00B4D404600F049F92846BDE8F087BC4C0208183508100B00001601018800104B020805005200EF49020000002640010050007C
:403F8000F0B47F4B1A6855684FF0B0535B7813F0FF0F04D04FF0B0535B78DBB200E02123212B55D1116AB2F8B030C3EBC303CC18CB58002BF6DAE36843F00103E360146A64
:403FC000B2F8B030C3EBC3031C44E36813F0020F2DD0E3689EB21368D2F884105958090A090401F47F01D2F88870DB591B0A41EA03633343E3601168D2F884208B5823F407
:404000007F4343F410638B505D4A13681C68D3F88810635823F47F4343F41063635013681A68D3F884105158D3F88830D358544B1A68116AB2F8B030C3EBC3030B44002182
:404040005960116AB2F8B030C3EBC3030B445B684B4B19680C68D1F894301C44494A136943F004031361012801D030BF07E020BF454B1B7803B120BF0122434B1A7023689C
:4040800003F00303022BE9D00A6AB1F8B030C3EBC303D018D358002BF6DA4FF0B0535B7813F0FF0F04D04FF0B0535B78DBB200E02123212B30D1C36813F0020F1FD00C68F3
:4040C000D1F88410635823F47F42C3681B0C1B0203F47F4313436350294B19680C68D1F88800235823F47F420D6AB1F8B030C3EBC3032B44DB681B0E42EA03232350204B13
:404100001A68136AB2F8B020C2EBC2021344DA6822F00102DA6026E0D5F80C311BBB1B490E681B4BD3F818451A4A106841F61E770F600621C3F818153E2111604422C3F848
:404140001C25134BD3F81C35002BFADA4FF0AA33C5F80C310D4B1E60A3F58473C3F8184503F582731860064B1A68116AB2F8B030C3EBC3030B4400225A60F0BC704700BFF4
:40418000BC4C020800ED00E0384B020808012640000026400401264001B40248844601BC604700BF350E081001B40248844601BC604700BF610C081001B40248844601BC15
:4041C000604700BF2D09081001B40248844601BC604700BFBB11081001B40248844601BC604700BFD90B081001B40248844601BC604700BFC311081001B40248844601BCF5
:40420000604700BF550A081001B40248844601BC604700BFE510081000000000000000000000000000000000000000000000000000000000000000000000000000000000A8
:40424000000000000000000000000000000000000000000000000000000000000000000000000000000000000000000000000000000000000000000000000000000000003E
:4042800000000000000000000000000000000000000000000000000000000000000000000000000000000000000000000000000000000000000000000000000000000000FE
:4042C00000000000000000000000000000000000000000000000000000000000000000000000000000000000000000000000000000000000000000000000000000000000BE
:40430000000000000000000000000000000000000000000000000000000000000000000000000000000000000000000000000000000000000000000000000000000000007D
:40434000000000000000000000000000000000000000000000000000000000000000000000000000000000000000000000000000000000000000000000000000000000003D
:4043800000000000000000000000000000000000000000000000000000000000000000000000000000000000000000000000000000000000000000000000000000000000FD
:4043C00000000000000000000000000000000000000000000000000000000000000000000000000000000000000000000000000000000000000000000000000000000000BD
:0200000490303A
:0200000080A3DB
:0200000490501A
:0C0000000005E2F021002101E307A1A3AC
:00000001FF