:020000041000EA
:4000000000400208230100100D00000085010010000000000000000000000000000000000000000000000000000000008101001000000000000000008101001081010010E9
:400040008101001081010010810100108101001081010010810100108101001081010010810100108101001081010010810100108101001081010010810100108101001060
:400080008101001081010010810100108101001081010010810100108101001081010010810100108101001081010010810100108101001081010010810100108101001020
:4000C00010B5064C2378002B07D1054B002B02D0044800E000BF0123237010BD6C3300080000000020860010084B10B5002B03D00749084800E000BF07480368002B00D127
:4001000010BD064B002BFBD09847F9E70000000070330008208600100C050008000000007047FFF7FDFF72B60F4C104DAC4209DA21686268A368043B02DBC858D050FAE77D
:400140000C34F3E70A490B4A0020521A02DD043A8850FCDC084809490860BFF34F8F00F051FA00F011F9FEE7CC9D0210E49D02106C330008C04400080000000808ED00E012
:40018000FEE7FEE700B504207146084202D0EFF3098001E0EFF30880043002F089F8FEE710B529F0DDF910BD00B587B06B46D871642802D964226B46DA7103AB17221A81B5
:4001C0006A46073203920122DA809A80402906D0180010F025FA03A9024803F097FB07B000BDC0469444000810B584B001AC122323816B46084A1278DA700333019301235B
:40020000E380A380200010F00BFA2100034803F07DFB04B010BDC046883300089444000810B5084B1B78002B03D10122054B1A7002E00022034B1A700822034BDA60FFF7E7
:40024000D3FF10BD883300080003324030B583B00C00274B98420CD004D880235B01984207D042E0234B98420ED0234B984212D03BE00222214B9A600021002003F048F943
:4002800000221F4B5A7030E002221C4B5A60013A1B4B5A7029E00B89122B0FD10B681D78174B1D70FFF7A0FF002D02D00822154B5A60002D02D10822124B9A602389152B32
:4002C00005D123681B78002B01D0FFF7A9FF2389172B07D123681B780193002B02D0084B01AA9A70E0680FF007FB03B030BDC04608400000015000000C500000800332401A
:40030000883300080003324030B583B0FFF788FF01A9174801F0C2F8002803D0C921154801F090FF0022124B5A60134CA578E570FF20019B184005F0F9F8104B196804F0A7
:4003400039FE0F4904F036FE04F08EFCC0B2A070854205D06378012B02D10021FFF724FF084B8022D2041A601B6803B030BDC04640012340E86B001088330008C000000816
:40038000000020414011234010B584B062B6002000F05CFC224800F0BBF9224800F056FC214802F081FDC8239B00204A2049D150204B1A683223D35C0A2B04D8E021FF31EF
:4003C0001D4801F03FFF1B4B1B681B6A8A225201981883681A04120C8021C9000A431B0C0B431B041343836002AC144B220003CB03C20F49200001F09DFE0023E25E002A4E
:4004000005DB1F231A401E3B93400D4A1360002301930C4B5B78002BFBD129F0A1F8F8E7000008104D020010A1010010000021400903001090440008F46B0010E06B001095
:4004400000E100E08833000810B5002001F038FB10BDC04670B56249E0239B00CB580F2213401A00D0329200525807210A40032A05D0042A06D0002A12D15A4814E05A4AF0
:40048000106811E01A00C0329200554952581F210A40112A06D0132A04D0FA20C00103E0524801E080200002002B36D14C4BB222D2009A5801211140B125ED005A59120FFB
:4004C000032422405B591B0F1C4207D0444C63591B0F03242340012B02D102E0012300E00023002B01D0002901D1032A4BD13C4BB022D2009D58AD03AD0B3D495958C9048C
:40050000C90C9C58240E01231C40013404F0B0F96843210004F0ACF935E0012B33D1304BC822D2009A5801251540C024E4001A59120F03210A401B591B0F194207D0284915
:400540000B591B0F03210B40012B02D102E0012300E00023002B01D0002D01D1032A12D11F4DC022D200AB587F210B40A958090A1F263140AC58240C3440584304F078F9EB
:40058000210004F075F9E0239B00154AD3581B0903221340D840144C6060164B1D692D0AFC32154001351969090E013104F060F9A060290004F05CF90500E06020610E4B3C
:4005C000C0180E4904F054F920750D4BE818FA21890004F04DF9A061C003E06170BDC0460000264000127A00C400000800366E0184050000000021403F420F0040420F001A
:40060000E703000010B5284802F02CFB274CB022D200A3585B005B08A350E0218900635830208343635080235B04A350204A214BE250A02292010433E250FF221E4BE2503A
:4006400002F0FEFAC0225200A35801218B43A35000F04EFAFFF7FEFEB0235B055B78002B04D0B0235B055B78DBB200E02123212B03D1124B0022DA605A60114C22008021E5
:40068000042000F07DFF2000103001F057F80D4B1A685123D35C002B02D00B4801F0C4F800F0A8FB10BDC046D47200100000264001000200840500008C050000E00023400E
:4006C0009033000890440008346C00108023024AD3580320184070470000214010B501F078FE084980228C58074B2340074C23438B508823034AD358DB06FAD501F06DFE7B
:4007000010BDC04600002140FCFF00000100FA0570B50500830504D0E821FF310F4801F091FD01F056FE0400FFF7D0FF032801D1FFF7D4FF0A4AB0239B00D55080215058F1
:40074000084B03400848034353508823044AD358DB06FAD5200001F040FE70BD686C001000002140FCFF00000300FA05FEE7C04680231B060B4A13600B490C4A11608121E4
:4007800049000B4A11608021C9010A4A11600A4A13608022D203094B1A60094A094B1A607047C04600001041010124008000104188001041A000104100001D4100031D413F
:4007C00001001180000E1F4130B587B0B44DB54C2B598022120613432B51012001F00CFD2B59C022D20513432B51AF4A116808230B431360AD4C03E0012001F017FD013C04
:40080000A94B1B695B0701D4002CF5D1002C01D1A74B00E00023002B02D00520FFF7A6FF9F48A021C900435803229343023A13434350A0490A6810688823D358C318186837
:400840009D4A104018600B68186884241B59C01803681B021B0A80256D042B430360086805680359EB18186802409020000102431A600B683E229A5C002A06D08848E02146
:4008800089004258753CA24342503E229A5C002A06D08348E021890042583024A24342503E229B5C002B07D07D49E02292008B588020000603438B501221FF31012001F00B
:4008C00031F90021022001F02DF90021032001F029F90021042001F025F90021002001F021F901A8754903000A0032CA32C312CA12C301F06BF9002802D00420FFF736FFC9
:4009000067496F4A8B588020000603438B506D4801F018FA002802D00420FFF727FF604C694BE158694A0A40E250E158684A0A40E250E25880252D062A43E250043BE1585A
:40094000644A0A40E250E158634A0A40802189010A43E250E258802109020A43E250524A11685E4B0B401360002002F04BF95C4BE2582A43E250E158012291430A43E2500D
:400980006421002001F0ACFC4A4B1B683F229A5C052A06D970229A5C01210A405149986842509A6874215B5AD2185168424B0B408C2189010B4353603E4B1B6873229A5CC6
:4009C0000321914070229A5C7220185C140084402143012002400A43802109060A438021C900986842509A6852583F229A5C132A03D900213C4A986881509A6874215B5AAF
:400A0000D21811682C4B0B40902109010B431360284B1B687322995C703A8A40110070229A5C7220185C82400A43802109060A438021C900986842509A6852583F229A5C77
:400A4000392A06D970229A5C02210A402749986842509A6874215B5AD2189168164B0B40C42189010B439360124B1A687323D35C032199407023D35C7220105C1C00844071
:400A80002143022003400B43802109060B438021C9009068435093685B5807B030BDC046000026403C0500000000274020A1070002004A0090440008FF00FFFF886C0010D5
:400AC000087F0000400D030004050000FEFCFFFFFFFF00FFFFF0FFFFFF8FFFFFFFFCFFFF0C050000140C00004C0C0000E40C000070B58EB09621002001F0F2FB01F0C8FB6A
:400B0000002814D101F0B4FBC0235B00434AD358DB0705D41100424A8B585B005B088B503E493F4A8B588020000603438B50012002F000F83B4A516C3B4B0B40E8218901D3
:400B40000B435364536C1B0AFF2213403A2B07D1344A516C354B0B40E82189010B43536401AC34220021200006F008F8304D22000021280000F04AFA34220021200005F05B
:400B8000FDFF22000121280000F040FAFFF71CFE24220021200005F0F1FF80231B03E3602100280000F0CCFB224D22002B00143343CB43C243CB43C243CB43C221001E4860
:400BC00000F0BEFB22002B00383343CB43C243CB43C243CB43C22100184800F0B1FB22002B005C3323CB23C223CB23C223CB23C22100134800F0A4FB124923000A0023CA69
:400C000023C323CA23C323CA23C321000E4800F097FBFFF7ADFD0EB070BDC046000026400C05000000002740FF00FFFFFFC5FFDF00003240886C0010800232400003324042
:400C400080033240086D00108004324010B5002803D00B4BD862002000E00A4800280DD1094B1B78002B05D1054802F06BF80122054B1A70002801D102F092F810BDC0468C
:400C8000E40000080100160020350008C00543425841C0B27047C046214B984230D00ED8402831D004D800281FD010282AD031E080282BD080235B00984229D02AE0194B15
:400CC000984229D007D8A0231B0698420DD0164B984212D01EE0154B98420AD0144B984209D0144B984215D101E0002016E0124814E0124812E0124810E0A020C0030DE0FC
:400D000007480BE00F4809E00F4807E00F4805E0034803E00E4801E0A420C0037047C04606005200010000F0090000A0040000F0050000F0030000F00100520002005200A1
:400D400003005200010050000200500005005200FF00520070B5124B1A683123D35C002B04D1C421FF310F4801F06CFA0C4B1D682C00B423EB582A6A944663441B68002BA4
:400D80000BDB094B1868FFF787FF6B6801229A6063689B68002BFBD100E0044870BDC04690440008F46B00104C3500080200500010B50D4B1861002805D002230370FD3368
:400DC000437000234380094B1B6850229A5C002A08D051229B5C002B04D04F3A0449002000F0DCFD10BDC0464C350008904400088505000810B502481430FFF7D9FF10BD39
:400E00004C35000870B504000D00FFF73FFF002836D0002D36D0FFF71DFB1B4B1B4A1A6000225A609C60DD60194B1B6852329A5C002A1FD01A6884215B58D31819681A68B4
:400E4000120AFF2313405A1C0B0E01335343114C5C43114B1868FA21890003F009FD0100200003F005FD0D4BC1188020400005F0AFFE08E000218020400005F0A9FE02E0E3
:400E8000074800E0064870BD4C3500080001000590440008C0EA2101C8000008482600000600520010B5FFF755FF10BD10B50400FFF7ECFE00283ED0FFF7CCFAE0225205EB
:400EC0001E4B1A601E4B1B78002B05D01B4A1368802149000B431360184B5C6000229A60DA60184B1B6854329A5C002A1ED01A6884215B58D31819681A68120AFF23134040
:400F00005A1C0B0E013353430F4C5C430F4B1868FA21890003F0ACFC0100200003F0A8FC0B4BC118002005F053FE05E00021002005F04EFE00E0074810BDC0464C35000806
:400F40000B0000169044000860F59000C8000008980800000600520070B504000D00FFF795FE002842D0002D42D0FFF773FAC022D204204B1A60204B1B78002B05D01D4A2A
:400F80001368802149000B4313601A4B802252005A609C60DD60194B1B68AD3A9A5C002A1FD01A6884215B58D31819681A68120AFF2313405A1C0B0E01335343104C5C4335
:400FC000104B1868FA21890003F052FC0100200003F04EFCE1239B00C118002005F0F8FD07E00021002005F0F3FD02E0064800E0054870BD4C3500080B0000169044000834
:40100000808D5B00C800000806005200F8B54F464646C0B406000D001400002800D16FE1002A00D16EE1072903D94521B84801F009F92368012B03D94621B54801F002F9DC
:401040000F2362689A4303D04721B14801F0FAF8237A1F22934303D04821AD4801F0F2F8E368032B03D94921A94801F0EBF82369012B03D94A21A64801F0E4F86369012B8A
:4010800003D94B21A24801F0DDF8A369012B03D94C219F4801F0D6F8E369032B03D94D219B4801F0CFF8236A012B03D94E21984801F0C8F8636A012B03D94F21944801F00B
:4010C000C1F8A36A012B03D95021914801F0BAF8E36A032B03D951218D4801F0B3F8236B072B03D952218A4801F0ACF82768072D03D98849884801F0A5F8012F04D9CA21BF
:401100008900854801F09EF8002F03D10123AB40736002E00123AB40B3606768072D04D9F12189007C4801F08DF80F233A009A4303D07A49784801F085F8A900784B1A6839
:401140007D23D35C9B191A6890460F2291468A40404690430200484607408F4017431F60277A072D04D9A22189006B4801F06AF81F233A009A4303D06A49674801F062F80D
:40118000674B1A689369F31ADB0952691B01D318032D0AD81968E8001F22824091431F22174087400F431F600AE02A1F5968D2001F20904081431F20074097400F435F60C3
:4011C000E768082D04D9DD21C900534801F03AF8032F03D95449504801F034F86900504B1A687C23D35C9B191A689046032291468A40404690430200484607408F4017432A
:401200001F602769082D03D94849434801F01AF8012F03D94649404801F014F8B36901221100A9408B431740AF401F43B76163699846072D03D93F49374801F003F8434652
:40124000012B03D93C49344800F0FCFF34487E230268D35C9B191A6801273900A9408C468A43110042463A40AA400A431A606B0010229046984403210B0042469340624660
:40128000134399467F2203689A5C9446B44463461A684B469A43A3693B40AB401A43E3691940434699400A4363461A6002688023D35CF6183368FF22944693431800236AEB
:4012C0001F40636A5A00022313403B43A26A9100042739400B431F00E36AD900182319403B000B43226B520161460A401343AD00FE2292001540AB4003433360002002E0E0
:401300000E4800E00D480CBC90469946F8BDC046906F001027030000D06F0010C50300009044000889020000E9060000690600006A060000030400000404000001005A00FB
:4013400070B505000C0000285DD000295DD0FF230A689A4303D099212D4800F073FFFF2322699A4303D09A21294800F06BFFA3685B0D03D09B21264800F064FF63685B0AE1
:4013800003D09C21224800F05DFFE3695B0F03D09D211F4800F056FF236A5B0F03D09E211B4800F04FFF1B4A11688B69EB1ADB0949691B01CB18216829607D211068415C99
:4013C0006918E06808607E211068415C6918206908607F211068415C6918606908607C211068415C6918A06808606168A961116880228A5CAD18A2692A60E2691A60226A0D
:401400005A60002002E0044800E0034870BDC046906F00109044000801005A0070B504000D000A4B1A68B423D3581B181B68002B0ADA0B0C03D00649064800F003FF2D0482
:401440002D0C6560002000E0034870BD90440008D50200001070001001008A0070B505000C000368002B01DA002300E0084B002B0BD1EA60230C03D00649074800F0E2FE6A
:401480002404240CAC60002000E0014870BDC04601008A00BB0200001070001070B505000C1E03D19921084800F0CCFE074B1A68B423D3585B191B68002B03DAEB682360DD
:4014C000002000E0024870BD507000109044000801008A0070B504000D00234B1A683123D35C834236D9002936D00B68DB0635D13123D35C984204D3C421FF311B4800F09C
:40150000A1FE194B1B681A6AB0215B5A5C431419174E34602B68DA080021686805F02EFB00212000FFF77AFF3468002D03D111490E4800F087FE2A0000212000FFF78EFF72
:4015400000280DD10A4B18680021FFF767FF002808D108E0084806E0074804E0064802E0064800E0054870BD9044000810700010643500089303000003018A0001018A002C
:4015800010B50400002A17D1002915D1124B1A683123D35C984204D3C421FF310F4800F051FE0D4B1B681A6AB0215B5A5C4314190B4B1C6000200EE0002A09D0002909D0ED
:4015C000074B59609A60191D2000FFF783FF02E0044800E0034810BD90440008107000106435000803018A00F0B583B00D001C4B1B68DC68236883422DD947097B01C01A48
:40160000012383401E00002903D100F0E2FE019001E000230193124B18680368002B01DA002300E00F4B002B0ED16368BF00DF193B68334203D133433B60002400E00A4C21
:401640000021FFF7EBFE00E0084C002D04D1019800F0C3FE00E0064C200003B0F0BDC0466435000801008A00020188000301880004018A00F0B583B00D001C4B1B68DC684D
:40168000236883422DD947097B01C01A012383401E00002903D100F09CFE019001E000230193124B18680368002B01DA002300E00F4B002B0ED16368BF00DF193B6833422A
:4016C00003D0B3433B60002400E00A4C0021FFF7A5FE00E0084C002D04D1019800F07DFE00E0064C200003B0F0BDC0466435000801008A00020188000301880004018A00AE
:401700000A4B1B68DA68136883420BD943095901401A0121814052689B009B580B4203D0034802E0034800E003487047643500080101880004018A0000018800034B1B68B2
:40174000002B01D1014B18607047C04670350008F0B5474680B404000F0090461E002D4B1B68002B03D1B5212B4800F06BFD294B1B682C2060431C18FF22150035402560EC
:40178000330A13406360360CA660244B1A683123D35C9D4204D3C421FF31214800F052FD1E4B1A68B023D35A6B43116A8C466344236166683223D35C9E4204D3E021FF315C
:4017C000174800F03FFD154B1B681D6A80367601AD196561A668330C04D0FF214900104800F030FD330C03D00E490D4800F02AFD3604330C1E43AE604346E3612762002306
:40180000A361069B002B02D000229B5EA38104BC9046F0BD70350008907000109044000810700010FF010000F0B58FB0041E03D15221294800F006FD6368032B03D9542160
:40184000254800F0FFFCE36A002B03D15821224800F0F8FC236B002B03D159211E4800F0F1FC07AA1300210061C961C321C921C302AD290023001433C1CBC1C141CB41C154
:401880000821535E0CAE3380144B1B6836215B5E07998C466344B370089B0D930B9B0A980096A26AE16AFFF753FF2B69E868002200920021FFF74CFF216B300000F03AFC17
:4018C0000023F25E002A05DB1F231A401E3B9340034A13600FB0F0BD907000109044000800E100E0F8B505000F0016001C00002A03D1FD21224800F0A5FC224B1B68002BA5
:4019000003D1FE211E4800F09DFC1E4B1B682C2128004843181879435918012213004D68AB401B044568AA4015000269002A20D08F69002F1FD11268002A01DA002200E0BE
:40194000114A002A19D132681204120C134333600369DE6001238B614C6204692B0C03D00A490B4800F06EFC2A04120CA260002004E0084802E0084800E00748F8BDC046A4
:40198000907000107035000801008A00BB0200001070001004028A0007028A0070B504000D0016000F4B1B68002B04D1AF2149000D4800F047FC0B4B1B682C2060431C18A9
:4019C000236A002B04D1B1214900074800F03AFCE369B34204D9236AB6009D51002000E0024870BD70350008907000100A028A0070B582B0040000230193002804D1D221AF
:401A0000FF312D4800F01EFC2369002B04D1E9214900294800F016FC6369002B04D1D421FF31254800F00EFC236A002B04D1EA214900214800F006FC6269D5682B0C24D0DE
:401A40001B041360136820691C4B1A68B423D358C3181B68002B18DA01A9FFF71FFD00280ED1019803681E0CFF221340E269934207D29B00226AD358002B02D0984700E0FE
:401A8000002631002069FFF7C9FC2D042D0C0FD063691D601B68636A002B03D098470023636203E0A36A002B00D098470023A36163691B6802B070BD9070001090440008D9
:401AC00010B50400084B1B68002B04D1B221FF31064800F0B7FB044B1B682C2060431818FFF786FF10BDC046703500089070001010B50400094B1B689B6CC340DB0703D4F5
:401B0000BE21074800F09EFB044B1B681B691034A402E3580F20184010BDC04690440008D0700010134B1A683C23D35C83421DD9042904D94B1EFF3B9BB2132B18D8FF2974
:401B40000CD91F2319400C4A0300C0339B009950D03080000423835000200AE007231940D0308000044BC150002002E0034800E002487047904400080000264001004A0073
:401B800010B504000E4B1A683C23D35C834204D8A12149000B4800F055FB2300D0339B00094A985807231840042807D1C034A400A3581B30184080235B00184310BDC046C8
:401BC00090440008107100100000264070B5041E03D14A494A4800F035FBB023DB00494AD358002B00DA87E0474B22689A4203D94649434800F026FB23689B039B0BE279B1
:401C0000002A02D08022520400E000221343B022D2003C498B50A2883D4B9A4204D98C218900374800F00EFB22893A4B9A4203D93949334800F006FBA388DB04D90C2389CA
:401C40001B04364A13400B43354A2E498B50A37A0F2B04D98E218900294800F0F3FAE37A0F2B03D92F49264800F0ECFAA289284B9A4203D92C49224800F0E4FAA37A0F211A
:401C80001940E27A1201FF2313400B43A289120226490A401343A27B1207C02189050A401343B122D20017498B50A379042B03D91F49134800F0C6FA228A164B9A4204D9C6
:401CC000912189000E4800F0BDFA0E4819494558194B1D40A3791B02E022D20013402B4343504558154B1D40238A1B040B4A13402B434350002000E0114870BD1F020000BF
:401D00001071001000002640FFFF030029020000FF1F0000FF010000310200000000FF0184050000390200003A02000000FF1F00430200008C050000FFF8FFFFFFFF00FE4A
:401D400003004A0070B505003149324A8B588020000603438B502C0003E0012000F066FA013CB223DB002A4AD3585B0701D4002CF3D12749B122D2008858274B03408020CF
:401D8000800503438B50002D01D0002C0CD02049B022D2008B588020000603438B5003E0012000F043FA013CB223DB00184AD358DB0701D4002CF3D1002D01D0002C08D06C
:401DC0001349B122D2008B58C020800503438B5013E00F4BB121C90058580F4A02408020800502435A5008395A58520052085A5008495A58520052085A50002D03D0002C64
:401E000003D0002002E0002000E0044870BDC046000026408C050000FFFFFFCF02004A00F0B5564CA04200D9A2E0A24200D9A1E0534B994200D99FE00124524B1C70FF2837
:401E400005D80F2505400E340F26072321E04E4B984205D80F2303400F240026002518E0040A0F2323401D00484B984208D80001FF2318402B000343FF240026002508E0E0
:401E80000402F020000120402B000343404C00260025FF2A0DD81201FF2002401543E020C0021843F0231E43F0231B0323439C4625E03548824207D81004F02212031040CF
:401EC0001843224394461AE0100A0004F0273F03384018432D4B9A4209D81205F0231B0413401843FF231B0423439C4607E01206F0231B051A401043264B23439C46264B46
:401F00001A68176AB023D45AE200131BFB181B68002BF4DA1B4B5B78002B04D01F4B204AD358002B18DA1F4A1F4B1A601F4A204B1A601B4AA324E4001359B3431D431551D7
:401F40001C4C13596546AB43184310510D4B5960124BD150002000E017480F4B1A68146AB023D15ACA00531AE31800225A6004E0114802E0104800E00F48F0BD0F06000074
:401F8000FFFFFF0074350008FF040000FF0500000F0F000000000F0F904400081C050000000026401F1F0000080126403D3D0000040126401405000001004A0070B5002290
:401FC000264B1A70264B1C68226AB023E55AEC00631BD3181C68002CF4DA224A1468224A944206D1214A1468214A944203D0002502E0002500E00125A422D2001D4CA45855
:402000002402240A00225A60002D24D0002C23D000280FD1114B58680A000023002102F0F7FD6208002380185941220002F0D0FD040011E00A0000232000002102F0E8FDFE
:40204000064B5A685408002500196941002302F0BFFD040000E00024200070BD7435000890440008080126401F1F0000040126403D3D00000000264070B505000C001A4BC3
:402080001B6828229A5C012A15D1820807211000884327D19200AD1AED00FF20A8401B6820339A181168AC4023004B40184004004C40146016E03A229B5EDBB2994203D1FC
:4020C00076210A4800F0BEF8074B1B681B68072215408022120615438022920194466444A400E55070BDC046904400089871001070B504000D000B4B9A680B4B9A420CD114
:40210000002904D13821FF31084800F09BF81034054BA400E058E55003E01034A400044BE05870BD00ED00E0000000089871001000000010F0B5474680B482B0061E0191D5
:402140004AD04368032B03D93221264800F07AF80023F05E002804DBB178FFF78DFF002400E0214C0023F15E7368002912DB88081E4FC0308000C55903221140C900FC327E
:4021800090468A4095439A01434613408B402B43C35116E089B20F220A40083A92080632920013481018476803221140C900FF252A008A4097439A012B0013408B403B43CC
:4021C00043600B4B9A680B4B9A4206D10023F05E0199FFF78DFF00E0034C200002B004BC9046F0BD987100100100560000E100E000ED00E00000000810B5040006E0084B02
:40220000186800F0DDF8074B9C46644480231B029C42F4D8044B1868604300F0D1F810BDE00000080080FFFFDC00000810B5034B1B78584300F0C4F810BDC046D800000831
:4022400001BEFEE770B50D00044C18220100200004F09CFCA5610020FFF7F2FF200A0008024B1B685B6801229A60704790440008054B802212069A649B6C002B01DB002099
:4022800000E002487047C0460000274003004600054B8022120198585B68FF221A4202D08023DB021843704700002640FEE7C04610B50A4B0268DA6142681A6282685A6212
:4022C000C2689A620269DA6242691A6382695A63C2699A63FFF7EAFF10BDC046200A0008F0B5474680B4002801D0192300E064238B429B415B42304D2C682268A826A45B85
:40230000A41822680327BA433B401A4322602C682268A45BA2181668284CA046264016602C682668AA229446A25A96193268BA43134333602A6813686546525BD3181A6886
:40234000444614401C60002805D010291BD921291BD8012024E0184B1B6855229A5C914215D956229A5C914213D957229A5C914211D958229A5C91420FD959229B5C994292
:402380000DD804200CE000200AE0022008E0002006E0012004E0022002E0032000E00520054A1268526813680F218B430343136004BC9046F0BDC04690440008FFFCFFFF0A
:4023C0000230800803D001300238FCD1C046C0467047EFF3108072B6704780F31088704710B5B0235B059B899BB2002B04D0B0235B059B899BB201E080235B008022520063
:40240000934215D1184C23681968683A9B58C9180B680F208343963A13430B6021680C689C23CB58E318196881430A431A6019E00D4C2368196898229B58C918B02040051B
:402440000A4BC2580A4B13400A681343C022920013430B60226811689C23D358CB18054A82581A6010BDC0469044000848180000FFFCFFFF4418000030B5B0235B059B8935
:402480009BB2002B04D0B0235B059B899BB201E080235B0080225200934215D1184C23681968683A9B58C9180B680F208343953A13430B6021680C689C23CB58E318196865
:4024C00081430A431A6019E00D4D2B68196898229B58C918B0246405C12040012258094B13400A681343C022920013430B602A6811689C23D358CB1822581A6030BDC04620
:4025000090440008FFFCFFFFB0235B059B899BB2002B04D0B0235B059B899BB201E080235B008022520093420DD1104B1B681A6898215B58D21811680D4B0B40C021C9017C
:402540000B43136011E0094B1B68196898229B58C918084BB0225205D258074B13400A681343C022920013430B60704790440008FF8FFFFF18180000FFFCFFFF30B5B0237B
:402580005B059B899BB2002B04D0B0235B059B899BB201E080235B008022520093420DD1134B1B681A6898215B58D2181168114B0B408021C9010B43136018E00C4D2B6838
:4025C000196898229B58C918B02464050A4822580A4B13400A681343C022920013430B602A6811689C23D358CB1822581A6030BD90440008FF8FFFFF4C180000FFFCFFFFA0
:4026000010B5B0235B059B899BB2002B04D0B0235B059B899BB201E080235B0080225200934217D10020FFF763FAB0235B055B78002B04D0B0235B055B78DBB200E02123CF
:40264000222B03D8002803D1013004E0012002E0002000E0012010BD10B50400012803D910491148FFF7EEFD002C03D10F4B5869C00F00E000200E4B1A684423D35C002B49
:402680000ED0012C0CD1094B9B695B0005D4074B9B69002B03DA012002E0012000E0002010BDC04662070000DC710010000026409044000870B504000D00154B1A684423CA
:4026C000D35C002B22D0072803D912491248FFF7B9FD0F4B1A684423D35C002B04D00F4B9B690722134000E0002321009C420DD00A4882690726B243344014438461002DBC
:4027000004D0994202D9C820FFF790FD70BDC04690440008CC070000DC7100100000264030B5021E22D0C368002B21D00368002B20D00579A900104BCC582300002103E06E
:40274000934205D019005B69002BF9D1012000E0002000280FD0002C03D1AD00064BEA5000E04A6111610023536104E0002002E0002000E0002030BD8035000810B5021E14
:4027800028D00479A100144BC9580B0002E0934204D05B69002BFAD1002000E00120002819D08A420DD14B69002B05D0A4000A4AA35000221A610EE0A4000022064BE250E4
:4027C00009E01A69596951615A69002A03D01B69136100E0002010BD8035000830B585B004000D00022807D9042805D0032803D02A492B48FFF726FD6B1EDBB2012B07D962
:40280000042D05D0082D03D026492548FFF71AFDA400254BE458042D13D0012D1CD112E0A3682B420BD1E3681A6802925B6801930393290002A8236898471B4B5C61646961
:4028400002E0002000E00020002C24D0174B9842E6D1012DE4D11EE0022D01D104E01C006369002BFBD104E00F4B5C69002C00D0246900200DE0A3682B4209D1E3681A68E6
:4028800002925B6801930393290002A8236898472469002CEFD105B030BDC046B2090000DC710010B309000080350008FF00420070B50500012804D9E02149001B48FFF794
:4028C000C1FC1B4B1B68002B05D001210020FFF785FF040000E00024002C20D1FFF779FD0600134B1B68002B03D004210020FFF775FF104A136904218B431361012D01D015
:4029000030BF00E020BF3000FFF767FD084B1B68002B09D008210020FFF760FF04E002210020FFF75BFF044C200070BDDC7100108035000800ED00E0FF00420010B5FFF7F0
:4029400048FD074B5A6807490A40E824A40122435A605A68114059605B68FFF73EFD10BD00002640FF00FC0FF8B50700012803D93D493E48FFF766FCB0235B055B78002B49
:4029800004D0B0235B055B78DBB200E021239DB2B0235B059B899BB2002B04D0B0235B059E89B6B201E0802676000020FFF7A0F8002814D180235B009E4212D1222D12D826
:4029C0002B4B1B685C682B4821582B4B19403B068022520413400B432350002404E0274C02E0264C00E0254C80235B009E4201D1222D03D880235B009E4232D01C4B1A684F
:402A00003123D35C002B04D1C421FF311C48FFF719FC174B1B681D6A80235B009E4203D1002F05D0174A06E0002F03D0164A02E0164A00E0164A01212800FEF70FFD0028CF
:402A40000FD10B4B1A68B423D3585B191B68002BF7DBEB681B0E1B06A0221206934200D100242000F8BDC0464C0A0000DC7100109044000818F00000FFFFFFFE04004200B4
:402A8000F46B0010010100300300000C010000300100000C70B50400022805D0052803D020492148FFF7CEFBFFF7AAFD002836D0FFF78FFC0600022C07D10120FFF754FFAD
:402AC000051E0FD1FFF78CFC0CE018494B6907229343043A13434B613420FFF7A7FBFFF74DFD0025002D16D110494B69072293431A000723234013434B61022C02D1FFF704
:402B000003FD08E09120FFF791FBFFF7B5FC0020FFF72AFF05003000FFF75FFC00E0044D280070BD02070000DC7100100000264003004200F8B50500012804D98221090112
:402B40002948FFF77FFBFFF75BFD002849D0FFF740FC0700002D11D10021244B244AD150E823DB00B0225205D65CF6B20120FFF7FBFE041E19D1FFF733FC16E0B022520535
:402B80001C4BD0581A4B194958501B49565CF6B21A481A581F218A4314390A431A500320FFF744FBFFF7EAFC0024002C15D11049124A8B581F20834306401E438E50002DBB
:402BC00002D1FFF7A1FC08E00720FFF72FFBFFF753FC0020FFF7C8FE04003800FFF7FDFB00E0074C2000F8BDDC710010307F00000000264010180000410700001CFF0000F0
:402C000003004200042805D10B4A116804230B4313600FE0094B1A681168A023D358CB180006C022920410401860034A136804218B4313607047C04610E000E090440008AB
:402C40000749C02252008B589B009B088020C00503438B508B588020000603438B50704700002640014B18607047C0469044000870B5012902D0082944D049E0294B1B786F
:402C8000012B47D00320FEF73BFD274B984243D001F0CCFD012841D0022005F060FE0500FFF797FB214B186026F05EFC0400062817D0022D0AD1022013F04EFC032C01D046
:402CC000052C10D1002810D0194C13E0012013F043FC022C0BD000280BD1FFF7E9FD144C08E0002406E0124C04E0002402E0104C00E00F4C0E4B9C4211D10C4B1868FFF7FF
:402D00006CFB0CE0094B1868FFF767FB002406E0074C04E0064C02E0054C00E0044C200070BDC0469844000801018800B8350008FF00420010B50248FFF720FD10BDC04632
:402D40003802000810B5002817D00D4B5860C36A002B01D00A4A936000240A4B1C700A4B1C700A4B1C600A4B1C7000F0C9FB094B1C70094B1C70002000E0084810BDC0468E
:402D8000B8350008AC440008B0440008B4440008B1440008974400089C4400080100160030B59BB015AD14223049280003F0DDFE02AC4C220021200003F0E0FE2C4B02937A
:402DC000A5602C4BA3810523A3732B4B5B681B6923612A4B63611B2323836383183B2377013363770233A3770A33E3772022A3540132A35451323433E252713A0433E25437
:402E00001F48FFF78DFC05F0A4FD08A805F00CFE002828D11B4B0393174B5B68996B002904D022222A30684403F09FFE02A805F0A3FD002814D10122134B1A700023134A73
:402E40001370134A13700C4B5B681A6A00929B6ADB886A4693800D23D38068460DF0C2FB00220C4B1A601BB030BDC0468C730010913A001010290000B8350008961000003A
:402E8000380200085C0A000898440008A0440008A1440008B4440008014B024AD050704778F0010000003C40002803D0024BD860002000E001487047B835000801001600C5
:402EC00010B51AF0C1F9044B1B68002B02D0002800D0984710BDC046C435000810B5002809D0FA23FF33994207D80A00044903F03CFE002002E0034800E0024810BDC04632
:402F00000708001601001600F0B55F4656464D464446F0B4B14CA54481460E00904605930B00AF4A914204D942468A18AD498A4211D9AD4A934204D94246B218AB498A4240
:402F400009D9AB4A934200D823E14346F318A94A934200D922E1A84B5B695B0010D5A64B5B6907241C40022C25D10520FFF792FD0190A24B9842F8D003940123049324E01A
:402F80009F4B9D4AD3581F221A40E823DB00B0214905CB5C9B1A5A1E9341DBB20493002B0FD10120FFF7C6FD944B9842F9D001900523039309E00394012304930023019381
:402FC00003E005230393002301938E4B019A9A4204D1D621FF318C48FFF734F9F0231B069C466644730A9A465C0200210320FEF7FBFA0028F9D100250023029399E0B4424F
:403000001BD3BD4219D24A4652191078804606A84146C154594600290DD1802149058846A044414609786846017001781278914201D001229346013505E080225205A21846
:40304000127806A8C2540134013304E0002100238B46844647466D4A9342D0D959466046B846002962D0019B002B5FD1059B002B51D1C83300951D00B3465646A2468023C5
:403080001B03F7187F023800FDF710FF0400013D0120FFF7CBF8A423DB0322001A409A4201D1002DEBD122000294009D5446B2465E46574B9A4205D1FDF7F4FE554B984214
:4030C000FAD00290029B002B19D1C83300971F00A34606A90098FDF73FFF0400013F0120FFF7A4F8A423DB0322001A409A4204D1002FEED102945C4601E002945C46444B18
:40310000029A9A4211D1FDF7CDFE424B9842FAD0029001200AE0802000035044400206A9FDF770FE0290012000E0012001239C46E244029B019A134301D1454586D30028D3
:4031400001D0FFF78DF800210320FEF793FA0028F9D1019B002B25D1274B5B695B0009D5039B022B06D10220FFF794FC0190234B9842F8D0204B1B681B0213D4049B002B78
:4031800010D10020FFF7D6FC01901C4B9842F8D008E000230193204B029303E0002301931D4B0293019B002B0CD11C4B029999420AD0194B994207D0002901D1002004E006
:4031C000174802E0174800E0174887239B009D443CBC90469946A246AB46F0BDE4FDFFFFFFFFFF0F00001010FFFFFF1300800014FF070016000A0016000026400400420000
:403200001CFF000003004200A0740010FF0100000100500002005000060052000200520013001600120016000100160010B500280AD0FA23FF33994208D8F93BFF3B0A000A
:403240000349FFF761FE02E0024800E0014810BD070800160100160070B5C0B005000C001600802252000849684603F07EFC05E02A7872406B469E5C0135013C002CF7D1E8
:40328000300040B070BDC046A073001010B50022FFF7E2FF10BDC0460020704710B50C000088AE235843044B9C4660440A2101F0DFFA208010BDC04691FCFFFF10B50C00D2
:4032C0000023C05E044B5843044901F05BFBBD23181A208010BDC0464B280000102700000020704710B512F06BFF10BD10B5FEF79DFF10BD064B1B685B6B00229A5E002A0A
:4033000005DB1F231A401E3B9340024A13607047BC35000800E100E0094B1B685B6B00229A5E002A0ADB1F231A401E3B9340802204498B50BFF34F8FBFF36F8F7047C04660
:40334000BC35000800E100E0A023DB00024AD358032018407047C04600002640024B034AD058C00F7047C0461C0500000000264010B5FEF723FE10BD70B504000D00160017
:403380000320FEF7BDF9054B984205D0320029002000FEF745FD00E0014870BD0101880003004A0070B5431ADC171B196340934227D3164B164CE458A405A40D884208D942
:4033C000401A51084018110001F052FA201A0ED50AE0081A51084018110001F049FA00190C4B984202D802E0002000E00A48084D06496B589B0A9B028205920D13436B501D
:4034000001E000240020201A70BDC0463C05000000002640FE030000FF03000010B5034B1A6880210902FFF7BDFF10BD5002000810B501F097F80220FFF72EFD094C2368CE
:40344000586B0949FEF776FE23685B6B00229A5E002A05DB1F231A401E3B9340034A136010BDC046BC350008C12E001000E100E00420704710B5FEF7ACFF10BD10B5FEF77E
:40348000ACFF10BD10B5FFF713FA10BD10B50021FFF710F910BDC0467047C0467047C046002070470048704711001600004870471100160000487047110016000048704785
:4034C0001100160000487047110016000048704711001600004870471100160000487047110016000048704711001600004870471100160000487047110016007047C046DE
:4035000010B5024800F098FE10BDC0463402000870B5022875D8002975D10022002306E03C4CE45C012C01D90132D2B20133002BF6D0012A0CD1384B1B681C688A0052187E
:403540009300E3185B681B79023BDBB2012B5CD8324B1B78002B5AD1314B197000281DD12D4E34688B005B189A0023689D18CB00591A4B006168C9188988298221688918B3
:4035800049686468E45A0C8031680C68A446624452684968CB185B8853801FE001281DD11D4D2C688B005B189A0023689E18CB00591A4B006168C918898931822168891814
:4035C0004E686168C9180989318029680C68A446624452684968CB185B895380114B18700D4B1B6818680E4B1B789A00D3189A00801808F049FF00280AD10122074B1A706A
:4036000006E0094804E0084802E0084800E0084870BDC046A0440008BC350008A144000896440008B14400080100160002001600FF00160070B5002907D1154B1B681B6809
:403640009968CE7F002300250FE0114B1B681B68D968CE7FF6E7CA5C002A0AD00133CC5C1B2C01D09B1800E00125B34201D2002DF1D0002D0BD001338279CA54002204E090
:40368000D4180134855C0D550132052AF8D970BDBC35000870B505000CF0C2FF041E24D1134B19682B899A00D2189300143B0A6A944663445A68920117D5E87B1B695B6876
:4036C000CA699B1AC200101AC0180A4BC018AA88296803F04AFAEB7B074AD35C012B04D1064A117802230B431370200070BDC046BC350008A44400089C440008974400083A
:4037000070B586B004000289164B1B685B699B889A4223D101A80300220062CA62C300238381A389C38140230374FFF7B3FF051E0ED123681B789B0705D50B4B1B68210036
:403740000A48984704E0084B1B68210008489847084A137801218B43137000E00025280006B070BDBC350008C03500080500010006000100AC44000810B54288531E9BB266
:40378000182B1CD84478002C1BD1104B196893009A189300143B0A6A944663445A68920111D51B695868CB69C31AE1000C1BE41807496118022203F0D8F9002004E001209C
:4037C00002E0012000E0002010BDC046BC350008A444000830B587B0041E18D00E4B1B68196A028993009A189300143BCB185B689B010ED401AD14220021280003F0BEF9D8
:403800002B0007CC07C32800FFF744FF02E00E2000E0012007B030BDBC350008F0B5474680B482B005000C009046002840D001AF02220100380003F098F97B78002B02D178
:40384000244AD35C00E00023012B34D9192C35D86B78002B1AD000271F4833E00B199A00D2189300143BF3185A6892010CD56F781B695A68C369D21AFB00DB1B1748C31849
:403880009B5C424613800127013101E000210027134B1868066AA20012199300143BF3181B891B1B99420CD8002FD7D00A4809E00027094806E000270A4803E00027064892
:4038C00000E00548002F00D0002002B004BC9046F0BDC046A044000801001600A4440008BC3500080700160000B583B06B469A1DFFF794FF002805D16B4606331B880130E3
:40390000184000E0002003B000BDC04670B586B004000D00002827D0002927D001AE02220100300003F021F97378002B02D1144AD35C00E00023012B1AD92800FFF74AFFFE
:40394000002817D129892000FFF7CEFF002813D002AE30000ECD0EC00222210003F005F930000BF0BBFF08E0064806E0054804E0054802E0054800E0054806B070BDC04614
:40398000A04400080100160007001600020016001700160030B583B004000D0006220021684603F0EBF8A3896A4613802389538012231371074B1B78DB0709D4002D04D060
:4039C000557168460BF068FF02E0E0680BF094FF03B030BDAC44000810B5002811D00023002406E09A0011495258904200D1012401330E4A1279934206D2002CF2D000236B
:403A000003E000240A4B00E00023002B0CD1002C0AD1064A1279002A05D104499400605001320A7100E0034B180010BDB8440008010016000300160070B506000D0000205F
:403A4000002406E0A200074BD3582900300098470134044B1B799C4203D2034B1B78DB07F0D470BDB8440008AC4400088379002B06D000200AE0C25C002A06D1013300E030
:403A80000023052BF7D9002000E001207047C046F0B5474680B48CB004000D00C54A117801230B43DBB21370C34B984200D178E232D8C24B984200D1DAE015D8C04B9842D7
:403AC00000D1FEE007D8023B984265D0BD4B984200D1F2E095E3BC4B984200D12FE1BB4B984200D188E38CE3B94B98424BD008D8B84B984200D1ADE0B74B984200D1A9E058
:403B00007FE3B64B984200D14FE200D9FEE1B44B984200D127E174E3B24B984200D1FAE216D8B14B984200D17FE208D8AF4B984200D1E7E1AE4B984200D1E7E161E3AD4B16
:403B4000984200D1C3E2AC4B984200D1DBE258E3AA4B984200D116E308D8A94B984200D109E3A84B984200D109E34AE3A64B984200D139E3A54B984200D152E2A44B984250
:403B800000D03EE303E3280005F098F8894A137801218B43137034E39E4B1E683000FFF765FF00280CD0300009F04CFC994E00213068FFF73FFD30680121FFF73BFD37E05A
:403BC000954B19688B6A1B79002B22D0B0204005924BC35C3F221340914E865D324092011A43904BC65C1F2333401B031343C022D200805C7F220240520413430A6B137098
:403C0000854A1168096B180A48701268126B1B0C9370814E3368186B09F014FC3368186B0021FFF707FD3368186B0121FFF702FD794B1B68986A023009F0B4FF08227A4955
:403C400005A802F092FF05A809F020FC0222774B1A70D6E20023754A1370754A1370754A13705D4B9C4200D0CBE2FFF763F8C8E2714B1B68DB0700D5C3E205AE03220021AF
:403C8000300002F07BFF644F3B689B6A1B785BB23370300009F014FC3B689B6A5B785BB2337001277770FF23B370300009F008FC614B1A6817431F60A3E22900FFF7BCFE80
:403CC0009FE26B78984602225749083105A802F04CFF00261DE002AF73005849C9180222380002F042FF7B78002B02D1544AD35C00E00023012B0BD97300504A9B5C984591
:403D000006D176009119022205A802F02EFF02E00136002EDFD005AB5B78FF2B04D103D148494948FEF78EFA05AB1B8808AA138007AA13801B0A2978444AD15461E22B7876
:403D4000002B00D05DE22B7A002B06D1404B0022DA809A803F4A1A606B60164A137801218B4313704DE26B79984602222E49083105A802F0FAFE00266FE003AF73002F49A7
:403D8000C9180222380002F0F0FE7B78002B02D12B4AD35C00E00023012B5DD97300274A9B5C984558D176009119022205A802F0DCFE54E0AC4400080840000004200000B6
:403DC0000210000001100000031000000410000019300000013000001230000006400000044000000C500000015000000A40000010400000025000000350000010500000E7
:403E00000E5000000F50000017500000016000001450000054020008BC350008040600000506000003060000DC74001098440008A1440008DC350008B444000894440008FA
:403E4000A0440008CA030000E8740010B0440008E43500086C3300080136002E8DD005AB5B78FF2B04D103D1CB49CC48FEF7EAF905AA138809A90B8013801B0A6978C84A0F
:403E8000D154EB78002B00D0BBE16B7998460222C449083105A802F068FE00261DE004AF7300C149C9180222380002F05EFE7B78002B02D1BD4AD35C00E00023012B0BD99A
:403EC0007300B94A9B5C984506D176009119022205A802F04AFE02E00136002EDFD005AB5B78FF2B04D103D1AB49AC48FEF7AAF905AA13880AA90B8013801B0A0121AC4A52
:403F0000D1547EE12900FFF797FD7AE1AB7E002B43D12B7E012B02D10022A64B1A70EB7E984602229F49083104A802F01EFE00261DE005AF73009C49C9180222380002F09E
:403F400014FE7B78002B02D1984AD35C00E00023012B0BD97300944A9B5C984506D176009119022204A802F000FE02E00136002EDFD004AB5B78FF2B04D103D18649874855
:403F8000FEF760F904AA13880BA90B8013801B0AFF2B02D0297E884AD1540222874B1A702FE10222854B1A702BE12900FFF744FD834B1B78DB0700D423E17E4B1B78012BBC
:403FC00003D102227B4B1A701BE1032B03D10022784B1A7015E1022B00D012E10022754B1A70784B1B685868774B1978CA00531A5B00C3189A79002A00D102E19B88002BB5
:4040000000D1FEE0714B1B78002B00D0F9E00120FFF77EFA002800D0F3E00122654B1A70EFE02900FFF708FDEBE002222900684602F09BFD6B465B78002B03D102215B4A69
:40404000D15405E0002B03D161495448FEF7FAF868784000544B18180222290002F085FD687800225B4B1A54C300181A5A4E8019544B1B681F692A78D300991A574B9C46B8
:40408000614479180631072202F06FFD6878C300181A80190621FFF7F9F86A78D3009B1AF3189B7998420DD04D4B1B6800214D4898476878C300181A474BC0180722002117
:4040C00002F05CFD29002000FFF7B6FC99E001AE02222900300002F048FD7378002B03D10021324AD15405E0002B03D138492B48FEF7A8F86B7800212D4AD15429002000A6
:40410000FFF79AFC7DE005A82B880380172343800BF0D0FB75E02800FFF7F2FA011E04D129002000FFF788FC01002800FFF732FC234B1A7811231A4204D0294B1B68290009
:40414000200098472A891E4B1B78DB070DD5531E9BB2182B09D905A8122303714280AB890380012343710BF097FB154A137801218B43137045E02900FFF75EFC41E0290071
:40418000FFF75AFC3DE02900FFF756FC39E02900FFF752FC35E0C046CA030000E87400109C440008DC74001094440008A0440008DC350008A1440008E03500089844000830
:4041C000AC440008BC35000896440008B144000886030000B0440008A444000890100000C0350008040001002800FFF7C5FA29002000FFF721FC04E00B4A117801230B436B
:4042000013700A4B1A7811231A4209D0074A137801218B431370064B1B682900200098470CB004BC9046F0BD97440008AC440008C03500080020704710B5002805D0044BA1
:4042400018600448FFF7C8FB00E0034810BDC046F0350008354200100100160070B50D000F4B184300040F4BD861FA24A40003E0013C0120FDF7DAFF0A4B1B6CDB0701D417
:40428000002CF5D1002C08D0064B196C01220A431A64DB6A2B80002000E0034870BDC0460080FFFF00003C400400160010B500040E4B184001430E4BD961FA24A40003E0CC
:4042C000013C0120FDF7B2FF094B1B6CDB0701D4002CF5D1002C06D0054A116C01230B431364002000E0034810BDC0460000FF7F00003C4004001600F0B583B006000A2442
:40430000C02149017548FFF7D1FF002804D16B46991D7248FFF7A2FF002C01D0013C00E06F48002805D16B46DA88C0235B019A42E6D1002825D16B46991D6A48FFF78EFFAC
:4043400000281ED16B4606331B885B0519D40A248021C9006348FFF7A9FF002804D16B46991D6048FFF77AFF002C01D0013C00E05B48002805D16B46DA888023DB009A42C8
:40438000E6D1002804D16B46991D5748FFF766FF002844D16B4606331B883F229343B278012A15D1F178012904D88FB20222D21B95B201E000250227402213439BB230221E
:4043C00013436A46D380494BCB40494A136013E0F178002904D18FB20122D21B95B201E00025012740229343102213436A46D380404BCB403E4A13606B469C1DD988394304
:40440000D9803948FFF752FFF378DB1B03221340AA0092B213432380374A38498B50B0235B055B78002B04D0B0235B055B78DBB200E02123212B4FD0314BB0225205D35AC5
:404440009BB2002B48D0002804D16B46991D2D48FFF704FF002824D16B469A1DDB8860218B4318001380B0256D05254C2B5B60310B405B08034324490B401380295BC9019C
:40448000F020C00001400B43204919401180285BC0239B000340DB00194311801948FFF705FF002804D16B46991D1948FFF7D6FE002811D16B469A1DD988C0239943118031
:4044C0000F4BB0204005C05A302303409B00194311800F48FFF7EAFE03B0F0BD021E000004001600031E0000091E00000048E801C40000080024F40064F0010000003C4018
:4045000016180000071E00007FF5FFFFFFE7FFFF061E000070B50C004000084901430848FFF7C4FE051E04D106490748FFF7BEFE05006001FDF77AFE280070BD0110000020
:40454000081E0000376800000F1E00000349044A8858102303438B507047C04600003C4070F00100F0B59DB013A9144B0A00180070C870C270C870C270C870C20AAD280095
:404580001A002432D0CAD0C0D0CAD0C0D0CAD0C001AC22004833C1CBC1C2C1CBC1C2C1CBC1C20748FCF7CCFE29000648FCF7C8FE21000548FCF7C4FE1DB0F0BD2075001018
:4045C000000132408001324000023240F8B5051E00D1DDE0734B5B689B0301D5FEF7AEF9714C03E0013C0120FDF720FE6F4B704AD358002B01D0002CF4D16E4B6C4AD358BC
:40460000DB0704D56C4BD358DB0700D5C2E0674B674AD358002B00D0BEE0FFF7A3FF644B6649674A99502A78A02109030A4365495A506549654A9950802252009B58DB07AA
:4046400000D5ABE0624B1B6F1B0709D4614B1868614B984206D9190000F00AF9013802E0012000E00020524B1B68002803D040035A4A104300E05A4818434D4B1860494BF5
:404680005B695B0017D501210320FEF713F8454B5B699B0F01221340524A116844228A5C002A0ED0002B0CD03E4A93698021C9050B43936105E03E494B4A88580323034344
:4046C0008B503B4C3B4AA658484B3343A3504020FDF7ACFD464BE358DB070BD42700444C01233B514020FDF7A1FD03233B514020FDF79CFD3F4F37403F4E3E432D4B2C4A56
:40470000D650FA24E40003E0013C0120FDF78EFD3A4B3B4AD358DB0601D4002CF4D1002C01D0002400E0374C002C23D12049364A8858082303438B500120FDF78DFF002833
:4047400001D1324E3E43324B1E4001231E43194B174AD650144E03E0013E0120FDF766FD154B134AD358DB0701D4002EF4D1002E00D1244C002C03D12800FFF7BDFD040042
:40478000002C0CD168782978FFF7C4FE040006E0204C04E0204C02E01F4C00E01F4C2000F8BDC04600002640F07E0E006CF0010000003C40A0F00100B4F0010006000001A6
:4047C000A4F00100A8F0010001000100ACF0010000F03D40CC00000800093D00041A0080040A008090440008C4F0010030000300B0F00100EFFFFEFF200002001040000077
:40480000000032400400160068F0010028000200FFFFFBFF010016000300160002001600014B18687047C046C400000810B5002405E02000FDF7A4F9032804D00134042CF1
:40484000F7D9002000E0012010BDC046A023DB00064AD35803221340012B03D0032B03D1012002E0012000E00020704700002640002243088B4274D303098B425FD3030A08
:404880008B4244D3030B8B4228D3030C8B420DD3FF22090212BA030C8B4202D31212090265D0030B8B4219D300E0090AC30B8B4201D3CB03C01A5241830B8B4201D38B0354
:4048C000C01A5241430B8B4201D34B03C01A5241030B8B4201D30B03C01A5241C30A8B4201D3CB02C01A5241830A8B4201D38B02C01A5241430A8B4201D34B02C01A5241FF
:40490000030A8B4201D30B02C01A5241CDD2C3098B4201D3CB01C01A524183098B4201D38B01C01A524143098B4201D34B01C01A524103098B4201D30B01C01A5241C3084D
:404940008B4201D3CB00C01A524183088B4201D38B00C01A524143088B4201D34B00C01A5241411A00D20146524110467047FFE701B5002000F0F0F802BDC0460029F7D039
:4049800076E7704703460B437FD4002243088B4274D303098B425FD3030A8B4244D3030B8B4228D3030C8B420DD3FF22090212BA030C8B4202D31212090265D0030B8B4202
:4049C00019D300E0090AC30B8B4201D3CB03C01A5241830B8B4201D38B03C01A5241430B8B4201D34B03C01A5241030B8B4201D30B03C01A5241C30A8B4201D3CB02C01A1B
:404A00005241830A8B4201D38B02C01A5241430A8B4201D34B02C01A5241030A8B4201D30B02C01A5241CDD2C3098B4201D3CB01C01A524183098B4201D38B01C01A524180
:404A400043098B4201D34B01C01A524103098B4201D30B01C01A5241C3088B4201D3CB00C01A524183088B4201D38B00C01A524143088B4201D34B00C01A5241411A00D2D1
:404A800001465241104670475DE0CA0F00D04942031000D34042534000229C4603098B422DD3030A8B4212D3FC22890112BA030A8B420CD3890192118B4208D389019211D8
:404AC0008B4204D389013AD0921100E08909C3098B4201D3CB01C01A524183098B4201D38B01C01A524143098B4201D34B01C01A524103098B4201D30B01C01A5241C30806
:404B00008B4201D3CB00C01A524183088B4201D38B00C01A5241D9D243088B4201D34B00C01A5241411A00D20146634652415B10104601D34042002B00D549427047634677
:404B40005B1000D3404201B5002000F005F802BD0029F8D016E770477047C0468446081C6146FFE71FB500F0E1F9002801D40021C8421FBD10B500F06DF94042013010BDD9
:404B800010B500F0D3F9002801DB002010BD012010BDC04610B500F0C9F9002801DD002010BD012010BDC04610B500F07BF9002801DC002010BD012010BDC04610B500F06D
:404BC00071F9002801DA002010BD012010BDC046002B11D1002A0FD1002900D1002802D00021C943081C07B4024802A14018029003BDC04665FFFFFF03B4684601B502989C
:404C000000F068F8019B9E4602B00CBC7047C046F0B54F464646C0B41604360C9946330005042C0C070C150C63437E436F4365431C0CAD1964199C46A64203D980235B027E
:404C4000984647446346250CEF191D044B464A4343432D0C240464199918C91920000CBC90469946F0BDC0469E2110B5C905041CFFF7A4FF002803D1201C00F035FC10BD32
:404C80009E21201CC90500F0A9FA00F02DFC80231B069C466044F2E770B500220C4B04000D0001F011FE002804D12000290001F069FD70BD064B00222000290001F00EFA2E
:404CC00001F060FD80231B069C466044F1E7C0460000E041F0B54D46564644465F46F0B4924683B004000D0099468B422FD82CD04946504601F010FE29000600200001F047
:404D00000BFE331A9846203B9B4600D574E053465A4693401F005346424693401E00AF4229D826D05B46A41BBD41002B00DA79E0002200230092019301235A469340019363
:404D4000012342469340009319E08242D0D900220023009201930C9B002B01D01C605D600098019903B03CBC90469946A246AB46F0BDA342D6D900220023009201934346D4
:404D8000002BE8D0FB0772081A4346467B080EE0AB4201D1A2420CD8A41A9D41012024196D410021013E24184D41002E06D0AB42EED9013E24196D41002EF8D15B460098CF
:404DC000019900196941002B22DB2B005A46D3402A004446E2401C005B461500002B2CDB26009E40330026004746BE403200801A994100900191AEE7424620239B1A524619
:404E0000DA40414613004A468A4017001F4382E7424620239B1A2A0046469A402300F3401343D5E74246202300219B1A0022009101920122DA40019282E7424620232600F9
:404E40009B1ADE402F00B446974066463B003343C9E7C046430270B542004C005D0AC30F4802120E460A240EC90FFF2A0FD0FF2C11D00120A24200D070BDB542FCD18B42B0
:404E80000DD0002AF8D12800431E9841F4E70120002DF1D1EBE70120002EEDD1E9E70020EAE7C0464302F0B542005D0AC30F4802440A4800120E000EC90FFF2A1FD0FF28A5
:404EC00022D0002A09D16E426E4100280FD1002C0DD10020002D09D005E0002801D1002C01D08B4213D0584201231843F0BD002EF7D048424141012049420843F6E7002DD1
:404F0000DDD002204042F1E7002CDAD0F9E78242E9DC04DBA542E6D80020A542E6D25842434101205B421843E0E7C0464302F0B542004C005E0AC30F4802120E450A240E25
:404F4000C90FFF2A17D0FF2C19D0002A0BD170427041002C17D0002807D048424141012049420843F0BD002C13D08B4214D0584201231843F6E70220002EF3D1E3E7022054
:404F8000002DEFD1E1E7002DE5D10020002EE9D0EDE7002DE9D1EAE7A242E8DC04DBAE42E5D80020AE42DDD25842434101205B421843D7E7F0B557464E4645464300E0B4A6
:404FC00046028846760A1F0EC40F002F47D0FF2F25D0002380259A469946F600ED042E437F3F434642465D02D20F5B006D0A1B0E904640D0FF2B39D080220020ED00D2042B
:4050000015437F3BFB1842465746591C62408C4607430F2F5CD86F49BF00C9598F46002E45D108239A46063B9946DAE7424602282DD0032800D1C3E0012800D0A2E00025F5
:4050400000260240D4B27602ED05760A2E43E407264330001CBC90469946A246F0BD002E1AD104239A46033B9946BAE72A00511E8A41901CC6E70120002DC3D0280001F0AC
:405080002DFC431F76309D4043420020BAE70124FF2514400026D6E7300001F01FFC431F9E400023763047429A46994699E70C239A46093B994694E780260024F603FF257B
:4050C000C1E735004846B2E7350022004846AEE72904090C0800370C3604360C2C0C7943704367437443060C64183619B14203D980214902884647440004000C31040918CA
:405100008D01681E8541890E2943350CED19AD010D43290104D5012369081D4063460D4319007F31002925DD680704D00F202840042800D00435280103D5274980330D40EB
:405140001900FE29A3DC0124AD016E0A1440CDB279E78020C003064207D0054205D128434602760A4446FF256DE706437602760AFF2568E70124611A1B2905DD144000252B
:40518000002660E76346CBE72E002023CE40591A8D406B1E9D412E43730704D00F233340042B00D00436730104D5012401251440002648E70124B601760A1440002542E725
:4051C00080260124F6032E437602760A1440FF2539E7C04660850010FFFFFFF7F8B54A024E0043024400240EC50F9B09360EC90F9209FF2E00D183E001204140A01BA94221
:405200005CD0002800DC95E0002E1CD1002A00D081E05A0704D00F221A40042A00D004335A013BD50134FF2C00D191E001209B015B0AE4B205405B02E4055B0AED0723434F
:405240002B431800F8BDFF2CE3D08021C9040A431B2800DD90E016002021C640081A8240511E8A4132439B1A5A0115D59B019E09300001F033FB0538864084426CDC041B1E
:40528000330020200134E340041BA640721E964100243343BDE70D005A07BCD1DF0801231D40FF2C33D1002F00D190E08022D20313003B435B025B0AFF24BCE700284FDD93
:4052C000002E2ED0FF2CA4D08025ED042A431B2800DD97E016002025C640281A8240501E824132439B185A01D5D50134FF2C6DD001227B481A405B08034013430D0088E731
:40530000002A00D07AE777E7031EC5D100257B025B0AE4B28FE701380028A4D0FF2C97D177E7002A00D174E701380028DAD0FF2CCDD16EE7002821D1601CC0B2012858DD3F
:4053400080279E1AFF0437402FD0D61A0D008FE701231D4000236EE7624B241A334058E7002851D1601CC6B2012E33DDFF282DD09B185B0804004CE7012274E7002C1AD0CA
:40538000FF2E1FD08024E404404223431B2800DD96E01D002024C540201A8340581E83412B43D31A34000D005EE7002E00D05FE700250024ABE7002B44D0C0430028F0D000
:4053C000FF2EE3D11300FF240D0022E70D00FF24002330E7002C5DD1002B7DD0002A00D117E79B185A0100D456E73E4A040013400FE7002C1ED1002B2FD1002A65D013009F
:405400000D0006E701226DE7002C1FD1002B59D0C04300280BD0FF2E4FD01B285EDC1D002024C540201A8340581E83412B439B18340058E7002B1CD1002A49D013000D0010
:40544000FF24E6E6130034000D00E2E6FF2E34D08024E40440422343DFE7002A00D1D8E68027981AFF04074000D14DE7D31A0D00CFE6FF24002A00D1CBE68020DB08C00391
:40548000034204D0D208024201D113000D00DB00FF24BEE6002B10D0FF24002A00D1B8E68020DB08C003034203D0D208024200D11300DB000D00FF24ABE61300FF24A8E69A
:4054C00001236EE713003400A3E6002700251EE780270025FF03E9E613009AE60123A6E7FFFFFF7DFFFFFFFB4302590A4300C20F1B0E00207E2B0EDD9D2B0DDC80200004D1
:405500000143952B0BDC9620C31AD9400B005842002A00D118007047034BD018FBE7963B99400B00F3E7C046FFFFFF7F70B5002830D0C317C5185D40C40F280001F0CEF9E8
:405540009E231B1A962B0DDC9622D21A95406A02520AD8B25202C005520AE40702432243100070BD992B19DC9922D21A9540124A2A40690704D00F210D40042D00D0043286
:40558000510103D50C4B1A409F231B1A9201520AD8B2DFE7002400200022DBE705222E00121AB921D6402A00C91A8A40551EAA4135001543DBE7C046FFFFFFFBF0B556467E
:4055C0004D4644465F46F0B41D000E034C00CB0F87B0070092468146360B640D98466AD06D4B9C4235D08022430F12041343F6001E43C3009946694B00279C4600236444CE
:4056000002932B0368001B0BED0F51469B46400D009500D178E0604B98426CD05B46DA004B0F802109040B4313439B465346D9005A4B9C46002360444246201A6A409246CD
:4056400001901F430F2F00D9B0E05548BF00C0598746374300D088E0002399460233082700260293CDE74346B34649460093029B009A9246022B00D0BFE10021534601229A
:40568000002689461A40444B002136030C0D2405360B2643434C1B0526401E437600D207760816434846310007B03CBC90469946A246AB46F0BD330003434FD0002E00D1EA
:4056C000BCE1300001F00AF903000B3B1C2B00DDADE11D220100D31A08393A008F408E40DA40B9461643304B00279C46002360444442029385E753465A4613432CD10023B6
:4057000000219B46023397E70B4320D05B46002B00D19EE1584601F0E1F803000B3B1C2B00DD8FE102005946083A91408B461D21CB1A5146D9400B0059460B4351469B464D
:405740009140194B9C4660444042002374E7002300219B4601336FE703236DE70023994601330427002602934BE703230C27029347E70122D51A382D00DCB0E153461A4004
:4057800000210023002689467EE700238026994600223603004B77E7FF07000001FCFFFFA0850010FFFF0F80F30300005E4500D972E100D16DE1019B4D46013B01930023D6
:4057C000340002935B461E020B0E1E430B020393330C994633041B0C494620000093FFF747F8009B370043430600494620009846FFF7C4F82C0C09040C43A04509D9E4191A
:40580000731EA74200D95CE1A04500D859E1023EE4194346E41A49462000FFF729F80300009A80465343494620009B46FFF7A6F82A040904120C0A4393450DD94346D21962
:40584000013B974200D93AE1934500D837E102235B429C46D219E0445B46D21A4346360433439B460399180C0B0C1D00059309045B46090C0C001B041B0C444304915943A4
:405880006B4368431B190D0CEB189C4203D980246402A44660441C0C09041B04090C20185D18824200D2DEE000D1D7E0161A029B9C465D1BAC459B415B42F61AB74200D190
:4058C00006E149463000FEF7D3FF009B04004343494630009846FFF751F82E0C09040E43B04509D9F619631EB74200D9F3E0B04500D8F0E0023CF6194346F31A494618006F
:405900000293FEF7B5FF009B06004343494602989846FFF733F82D0409042D0C0D43A84509D9ED19731EAF4200D9D6E0A84500D8D3E0023EED192404210043463143049E87
:40594000059A3000ED1A0B040C0C1B0C58436643534354439A19030C9B189E4203D980225202944664441A0C00041B04000C14191B18A54250D34DD001231943964A019B11
:4059800094466344002B00DCF3E64A0709D00F220A40042A05D00A1D8A42894149428B4411005A46D20108D55A468C4B1A4093468022D2009446019B6344894A934200DDA6
:4059C0005BE65A46C908500708435602514601225B058146360B5B0D0A4055E680231B031E4211D05A461A420ED15E461E433603360B2A0089467B4B46E6032B00D1E1E0E5
:405A0000012BBBD11A40BBE61E433603360B4246744B39E6002BB1D07D194A1EAF4252D91100A542A8D1039A9A42A5D1A6E703003E00283B9E400023994654E600F04EFFC4
:405A4000203041E603005246283B9A400021934677E6504600F042FF20305EE6029B0026AB4200D323E7039E0299B44661448846B045B6415B467642F619B218013B029102
:405A8000974213D290424FD800D18EE0161A9B460DE7894500D28EE674084B46F60735005B081D434B46DB0702938BE69742EDD10399029CA142E5D93E1A9B46F7E69846F6
:405AC000CAE61E00A5E6AC423ED874D0110053E70121494252E71C000EE71E002BE71F2D3CDC20230A0058465B1B9840EA4099400243481E81415E461143EE404B0709D035
:405B00000F230B40042B05D00B00191D99429B415B42F61833023CD55346012200211A40002601238946AFE502235B429C46039CE344A446029B63449846A045B64176420D
:405B4000F6190293B218B1E603988A1E41008142B6417642F619AD19039161E71F225242D31A5A46DA401300202D29D040225846551BA8400143481E814107200B43184013
:405B80000026002809D00F2200261A401900042ABBD10B0070077602360BDB0803439946012253461A4000236EE502998D42BBD89B4600267BE603989842C5D3110032E7CF
:405BC0000020D7E780265B4636031E433603360B009A8946034B57E5FF030000FFFFFFFEFE070000FF070000F0B55F4656464D464446F0B40D0399464E002B0B87B0070019
:405C0000924680469B46760DCC0F002E69D06D4B9E4235D05B468022DD001204430F13432B439B46C3009846674B00279C460023664401934A4615035000D20F53462D0BEF
:405C4000400D914600D176E05E4A90426CD080225B0F120413435C4AED0094461D4353460022DB00604449463618701C6140029017430F2F00D9AFE05448BF00C759BF4688
:405C80005B461F4300D088E000239B469846023308270193CEE74946022A6AD0032A00D109E2012A00D0BBE111400022002300259046CCB200212D030A0D12052D0B154387
:405CC000434A1B0515401D436D00E4076D0825434046290007B03CBC90469946A246AB46F0BD034352D05B46002B00D18AE1584600F0F4FD03000B3B1C2B00DD7BE11D227D
:405D0000D31A3A0001005D46DA4008398D4013008F402B439B46B8462E4B00279C46002360444642019385E752462A432CD100250023022297E752462A4321D0002D00D190
:405D400054E1280000F0CAFD03000B3B1C2B00DD46E11D21CB1A51460200D9405346083A954093400D431B4A944660444042002279E7012400220C40124B0025904699E781
:405D80000025002301226EE703226CE700239B4698460133042701934CE703230C27019348E700238025984600242D03054B81E75D464346019A6FE75D4643462100019AD0
:405DC0006AE7C046FF07000001FCFFFFE0850010FFFF0F80F30300004246120C91461A0C9446424617044A461B041B0C5A43604690464A4642431000039262461C003F0C7B
:405E00007A437C4342440192220C9246019A5244904506D98246802040028046C24450460390100C049048462404240C1204121905922A0C2D042D0C68432C008246484608
:405E40007C4350438146200C8046574357444744BA4503D9802040028046C144380C3F04B84648442404240C01900498A044404404905846000C814658460404200C824632
:405E8000070048465F434C464343604660436446834650464443380C8446E4186444A34203D980235B029C46E34448463F04230C3F0C2404E419574668436F4384464D4677
:405EC000504655434243380C814662444A445B44944503D9802040028446654403983F04834604983F0C8446E344C345804140428246100484460198674484466744A344F7
:405F0000BC46A345A4419946D44464428742BF41D4458041E144A04699459B417F424042C8440743120CBA18A045A4415F423B0064422343D71843467D19DB0D6D021D438D
:405F40005B465A02059B1A43531E9A415B46DB0D1A4343465B021343EA0107D501225C0813402343EA07029E13436D08574AB218002A4BDD580709D00F201840042805D0D9
:405F8000181D98429B415B42ED180300E80104D54F4A15408022D200B2184E48824200DDE7E60124DB08680718436D02530580462D0B5B0D0C407DE6802259461203114208
:405FC00008D0154206D115432D0398462D0B4C46414B6FE65D4615432D032D0B3E4B69E603005546283B9D400023BCE6504600F075FC2030A8E60300283B9F400023BB466E
:40600000984689E600F06AFC203073E60124A61A382E07DD00220C4000230025904649E6029EA3E71F2E20DC20222C001800921BF040944093400443581E83411C43F54098
:40604000630709D00F232340042B05D023001C1D9C4292415242AD182B021FD5012400220C4001230025904624E61F202C004042821AD440202E1CD04022961BB5402B43B4
:40608000581E83410720234318400025002809D00F2200251A401C00042AD8D1230068076D022D0B0124DB08034398460C40002300E60025E3E780220124120315432D03EB
:4060C00098462D0B0C40044BF4E5C046FF030000FFFFFFFEFE070000FF070000F0B557464E464546E0B40E001100F20F9246C500420F180337037400400A4E0F7F0A304399
:40610000CF4E17435A00640D520DDB0FC900B24200D1E5E001267340A61AB446534500D1AFE0002E00DC0DE1002A3AD103000B4300D0E4E06B0709D00F232B40042B05D0F7
:406140002B1DAB42AD416D427F191D003B0200D488E0BB4B01349C4200D110E13A00B94B51461A4001235007ED08520264050543120B640D0B400021280012030D0D120B32
:4061800064052D0515436208AF4CDB072C401443640064081C4321001CBC90469946A246F0BDA74B9C42C5D080231B0418436346382B00DDFDE01F2B00DD30E16246202305
:4061C0009B1A02009A40664690460A009940F24046464B1E99413243114363460200DA40691A8D429B410D00BA1A5B42D71A3B0235D57A02530A98464346002B00D1C4E056
:40620000404600F06BFB0300083B1F2B00DDC5E020222900D21A4746D1409F400A009D403A439C4200DDC0E01C1B631C1F2B00DDE4E0202114002800C91AD8408C408D402B
:406240000443DA40681E854117002543002471E7424663461A4300D14CE2674645466B0700D069E7012351467807ED08FA080B40054373498C4238D012036405120B640DBD
:4062800079E7002E00DC9AE0002A47D06C4A944200D14FE78022120410436246382A00DC08E10143481E81410022C9B24919D219A942BF410D007F42BF183A0200D442E133
:4062C0005F4A0134944200D14EE101205D4A69083A4028400843D507054357089A4629E706000E4300D017E714E72900114300D1F9E1802109030A431203120B3BE7012357
:406300005B429846C4446346002B72D1691A8D429B413F1A5B42FF1A0D0068E702000A4300D107E7012252429046C4446246002A00D0E6E06918A942B6413F187642F7199D
:406340000D00BAE7002E00D080E0621C5205520D012A00DCF9E06A1A91464D45B6413A1A7642921B9046120200D499E04D1BA9428941C71B49427A1A90469A463CE752469A
:406380000123002513400022F5E6280000F0A6FA20300300083B1F2B00DC39E72A002838824000259C4200DC3EE7264FE41A1740C0E60143481E81410022C9B210E7002EC2
:4063C00000D0F1E0621C94465205520D012A00DCA0E01B4A944500D1C5E06918A94292413F185242D2194908D5070D4357086446A0E6134B9C4200D0D9E69BE611001F3CDA
:40640000E1400C00202B00D180E04021CB1A9A4015436A1E95410027254300241FE763460200203BDA406346202B71D0402366469B1B98400143481E814111430022CFE69B
:40644000FF070000FFFF7FFFFFFF0F80002C48D0CA4CA24200D1A2E07442A1468024240427434C46382C00DDDBE01F2C00DD44E14E462024A41B3E00A640A246B0464C46A3
:406480002E00E640B4464646644626435446A5406C1EA54134002C434D46EF400D1B28E04A4643464D461A4300D0A5E6002300240025DEE61F2A5ADC66462022921B0600B7
:4064C00096409146B04662460E00D640424616434A4691404A1E9141020060463143C240E4E63C002C435AD0F443A146002C52D14D1BA9428941C71B49427F1A14009A4670
:4065000075E69E4A944200D0C7E613E600227FE700208FE7002C00D0C8E03B002B4300D10FE103000B4300D104E66918A9429B413F185B42DF193B0200D41AE1904B0D006C
:406540001F406446F6E59A4689E63A002A43002C5CD1002A75D102000A4300D1CAE007000D009A46E6E564460022002581E662460600203AD6406246B046202A00D1B7E029
:4065800040226646921B904001434246481E8141114300228AE6794CA24200D061E707000D0014009A46C5E5002C41D13C002C4378D0F443A146002C20D0704CA24271D0B7
:4065C0004C46382C00DDB2E01F2C00DDBCE02026341BA2463C005646B4404E46A0462C00F440A446444666463443A4465446A54064466E1EB54125434C46E7406D188D42AE
:4066000089413F184942CF19140056E6002A2FD102000A4300D184E007000D009A46574C88E53D436F1EBD41ECB200270D1B60E7524CA24236D0744280263604A146374306
:40664000BEE702000A4300D174E56A1A90464545B6413A1A7642921B9446120200D4F7E54D1BA9428941C71B49427F1A9A4661E502000A433AD0ED087C072C438025FA089A
:406680002D032A4208D0C7082F4205D145072C003A009A46C9080C43670FD200E5001743364C47E507000D00140043E53A002A4343D002000A4319D0ED087C072C4380259B
:4066C000FA082D032A4207D0C6082E4204D147073C003200C9080C43D700620FE50017439A46264C26E50022002544E5234C21E5002049E700230025BBE54C463E00203C09
:40670000E6404C46B446202C31D040244E46A61BB7403D436C1EA54164462C4300270D1BE7E6802200231203144C0025A1E53D436F1EBD410027EDB260E707000D000F4C19
:40674000F8E407000D00F5E44E463C00203EF440A0464C46202C0ED040244E46A41BA7403D436F1EBD4144460027254346E70027CFE70D0073E50027F2E7C046FF0700000F
:40678000FFFF7FFF0B0330B5134D1A0B4B005B0DC90F0024AB4211DD104CA34210DC8024640322430E4CE41A1F2C0CDD0D48C31ADA4013005C42002900D11C00200030BD12
:4067C000094BCC18FAE7E040084CA44663449A4013000343EEE7C046FE0300001D0400003304000013040000FFFFFF7FEDFBFFFF70B5051E28D000F071F8154B154A1B1A0E
:40680000D21A1F2A16DD2C00134A0025D21A94405A052403240B520D002124030B0D240B1B0523430D4C1205234013435B002800590870BD0B212C00081AC44095402403E5
:406840005A05240B520DE7E700220024E4E7C0461E0400003304000013040000FFFF0F808446101C62468C46191C634600E0C0461FB500F001F9002801D40021C8421FBD53
:4068800010B500F055F84042013010BD10B500F0F3F8002801DB002010BD012010BDC04610B500F0E9F8002801DD002010BD012010BDC04610B500F07BF8002801DC002007
:4068C00010BD012010BDC04610B500F071F8002801DA002010BD012010BDC0461C2101231B04984201D3000C10391B0A984201D3000A08391B09984201D30009043902A278
:40690000105C40187047C0460403020201010101000000000000000010B5002903D1FFF7DDFF203002E0081CFFF7D8FF10BDC046F0B55F4656464D464446F0B41F035C0018
:40694000DB0F9A46194B0E034D00C90F8046360B6D0D8B4691463F0B640D9D4219D0134B9C421BD00123A54206D018003CBC90469946A246AB46F0BDBE42F6D1C845F4D11B
:40698000D34510D0002DF0D1304303005A1E9341EBE7310001230143E7D1E0E73A430123002AE2D1DEE70023DFE7C046FF070000F0B55F46444656464D46F0B41F033C0BFD
:4069C0002C4F0E034D00A3465C008446360B6D0DC90F9046640DDB0FBD422BD0254FBC422ED0002D0ED130430700814678427841002C17D15F463A4314D14B460020002BCA
:406A00000AD006E0002C02D15846024301D099421AD00123484218433CBC90469946A246AB46F0BD0028F2D058425841012240421043F1E737000743D0D002204042EBE75E
:406A40005F461743CDD0F8E7A542E2DC05DB5E45DFD808D000205E45DED248424841012340421843D8E7C445D3D80020C445F4D3D2E7C046FF070000F0B55F464D464446CE
:406A80005646F0B41C03240BA4462F4C0F034D005E00C90F80463F0B6D0D8B469146760DDB0FA54220D0284CA64222D0002D12D1384344424441002E20D0002C0DD05C422F
:406AC000634101245B421C4320003CBC90469946A246AB46F0BD002E17D05B4519D05B465C4201231C43EFE7390002240143EBD1D9E7614602241143E6D1D7E761460A439F
:406B0000DBD100240028DFD0E9E761460A43E4D1E5E7B54203DD01225C421443D4E7B542CDDB6745DBD809D000246745CCD259464C426141012449420C43C5E7C845CED84D
:406B40000024C845F3D3BFE7FF07000030B50024A24208D0035D651C0C5DA34201D0181B02E02C00F4E7002030BD002310B59A4203D0CC5CC4540133F9E710BD030082182F
:406B8000934202D019700133FAE77047030030B5002A0DD00C7801335D1E013A2C700131002CF5D19A189A4202D01C700133FAE730BD0000F8B5C046F8BC08BC9E46704708
:406BC000F8B5C046F8BC08BC9E4670470000000001B40248844601BC604700BFD905000805002300020000006D61696E5F636D30702E630047656E6572617465645F536F1E
:406C0000757263655C50536F43365C70646C5C647269766572732F7065726970686572616C2F6970632F63795F6970635F6472762E68000003000000010000000100000015
:406C40000000000005036000040000000100000000000000010000000604600008000000003500084904001073797374656D5F70736F63365F636D30706C75732E630000F7
:406C80000300180003000000F4010000140004010A000905080000006301000003000000000000000000000068000000000000000000000000000000121200000000000095
:406CC000080000000000000000000000006000BA0000000000000000000000000000000000001D1D02000000000000000000000060000000000000000000000000000000D6
:406D000000000000000000003E0000000000000000000000000000000000000000000000000000000000000400000000000000000100190001000028010000000B000000C2
:406D40000018000000000000020003280100020003000000002A0000000000000300002A01000201030000000700000030010008040003280100020005000000012A0000C8
:406D8000000000000500012A01000201050000000200000038010008060003280100020007000000042A0000000000000700042A010002010700000008000000400100085D
:406DC000080003280100020009000000A62A0000000000000900A62A010002010900000001000000480100080A000328010002000B000000C92A0000000000000B00C92A18
:406E0000010002010B00000001000000500100080C000028010000000F00000001180000000000000D000328010020000F000000052A0000000000000E00052A0000200197
:406E40000F00000004000000580100080F00022901010A030F000000020000006001000810000028010000081900000010000000680100081100032801001A001300000096
:406E800010000000700100081200D7F001011A091300000001000000780100081300022901010A03130000000200000080010008140003280100080015000000100000005E
:406EC000880100081500D7F0000108091500000001000000900100081600032801001A001900000010000000980100081700D7F001011A091900000001000000A001000878
:406F00001800022901010A031800000002000000A80100081900012901000201190000000D000000B001000820719465AD6DA2B8E64A9443D7F0939121719465AD6DA2B81F
:406F4000E64A9443D7F0939122719465AD6DA2B8E64A9443D7F0939123719465AD6DA2B8E64A9443D7F09391010003000500070009000B000C000E000F00000010001200CB
:406F80001300000015000000000017001800190047656E6572617465645F536F757263655C50536F43365C70646C5C647269766572735C7065726970686572616C5C677069
:406FC000696F5C63795F6770696F2E630000000047656E6572617465645F536F757263655C50536F43365C70646C5C647269766572735C7065726970686572616C5C6770EA
:40700000696F5C63795F6770696F2E680000000047656E6572617465645F536F757263655C50536F43365C70646C5C647269766572735C7065726970686572616C5C6970A2
:40704000635C63795F6970635F6472762E68000047656E6572617465645F536F757263655C50536F43365C70646C5C647269766572735C7065726970686572616C5C69709F
:40708000635C63795F6970635F6472762E63000047656E6572617465645F536F757263655C50536F43365C70646C5C647269766572735C7065726970686572616C5C697064
:4070C000635C63795F6970635F706970652E630047656E6572617465645F536F757263655C50536F43365C70646C5C647269766572735C7065726970686572616C5C7072B9
:407100006F745C63795F70726F742E630000000047656E6572617465645F536F757263655C50536F43365C70646C5C647269766572735C7065726970686572616C5C737972
:4071400073636C6B5C63795F737973636C6B2E630000000047656E6572617465645F536F757263655C50536F43365C70646C5C647269766572735C70657269706865726148
:407180006C5C737973636C6B5C63795F737973636C6B2E680000000047656E6572617465645F536F757263655C50536F43365C70646C5C647269766572735C7065726970EF
:4071C000686572616C5C737973696E745C63795F737973696E742E630000000047656E6572617465645F536F757263655C50536F43365C70646C5C647269766572735C70A2
:4072000065726970686572616C5C737973706D5C63795F737973706D2E6300000000204000002440000000400000000000002340000030400000314000009F40000022400D
